{
  "_format": "hh-sol-artifact-1",
  "contractName": "MockNFT",
  "sourceName": "contracts/mocks/MockERC721.sol",
  "abi": [
    {
      "inputs": [
        {
          "internalType": "address",
          "name": "_receiver",
          "type": "address"
        }
      ],
      "stateMutability": "nonpayable",
      "type": "constructor"
    },
    {
      "anonymous": false,
      "inputs": [
        {
          "indexed": true,
          "internalType": "address",
          "name": "owner",
          "type": "address"
        },
        {
          "indexed": true,
          "internalType": "address",
          "name": "approved",
          "type": "address"
        },
        {
          "indexed": true,
          "internalType": "uint256",
          "name": "tokenId",
          "type": "uint256"
        }
      ],
      "name": "Approval",
      "type": "event"
    },
    {
      "anonymous": false,
      "inputs": [
        {
          "indexed": true,
          "internalType": "address",
          "name": "owner",
          "type": "address"
        },
        {
          "indexed": true,
          "internalType": "address",
          "name": "operator",
          "type": "address"
        },
        {
          "indexed": false,
          "internalType": "bool",
          "name": "approved",
          "type": "bool"
        }
      ],
      "name": "ApprovalForAll",
      "type": "event"
    },
    {
      "anonymous": false,
      "inputs": [
        {
          "indexed": true,
          "internalType": "address",
          "name": "from",
          "type": "address"
        },
        {
          "indexed": true,
          "internalType": "address",
          "name": "to",
          "type": "address"
        },
        {
          "indexed": true,
          "internalType": "uint256",
          "name": "tokenId",
          "type": "uint256"
        }
      ],
      "name": "Transfer",
      "type": "event"
    },
    {
      "inputs": [
        {
          "internalType": "address",
          "name": "to",
          "type": "address"
        },
        {
          "internalType": "uint256",
          "name": "tokenId",
          "type": "uint256"
        }
      ],
      "name": "approve",
      "outputs": [],
      "stateMutability": "nonpayable",
      "type": "function"
    },
    {
      "inputs": [
        {
          "internalType": "address",
          "name": "owner",
          "type": "address"
        }
      ],
      "name": "balanceOf",
      "outputs": [
        {
          "internalType": "uint256",
          "name": "",
          "type": "uint256"
        }
      ],
      "stateMutability": "view",
      "type": "function"
    },
    {
      "inputs": [
        {
          "internalType": "uint256",
          "name": "tokenId",
          "type": "uint256"
        }
      ],
      "name": "getApproved",
      "outputs": [
        {
          "internalType": "address",
          "name": "",
          "type": "address"
        }
      ],
      "stateMutability": "view",
      "type": "function"
    },
    {
      "inputs": [
        {
          "internalType": "address",
          "name": "owner",
          "type": "address"
        },
        {
          "internalType": "address",
          "name": "operator",
          "type": "address"
        }
      ],
      "name": "isApprovedForAll",
      "outputs": [
        {
          "internalType": "bool",
          "name": "",
          "type": "bool"
        }
      ],
      "stateMutability": "view",
      "type": "function"
    },
    {
      "inputs": [],
      "name": "name",
      "outputs": [
        {
          "internalType": "string",
          "name": "",
          "type": "string"
        }
      ],
      "stateMutability": "view",
      "type": "function"
    },
    {
      "inputs": [
        {
          "internalType": "uint256",
          "name": "tokenId",
          "type": "uint256"
        }
      ],
      "name": "ownerOf",
      "outputs": [
        {
          "internalType": "address",
          "name": "",
          "type": "address"
        }
      ],
      "stateMutability": "view",
      "type": "function"
    },
    {
      "inputs": [
        {
          "internalType": "address",
          "name": "to",
          "type": "address"
        },
        {
          "internalType": "uint256",
          "name": "tokenId",
          "type": "uint256"
        }
      ],
      "name": "safeMint",
      "outputs": [],
      "stateMutability": "nonpayable",
      "type": "function"
    },
    {
      "inputs": [
        {
          "internalType": "address",
          "name": "from",
          "type": "address"
        },
        {
          "internalType": "address",
          "name": "to",
          "type": "address"
        },
        {
          "internalType": "uint256",
          "name": "tokenId",
          "type": "uint256"
        }
      ],
      "name": "safeTransferFrom",
      "outputs": [],
      "stateMutability": "nonpayable",
      "type": "function"
    },
    {
      "inputs": [
        {
          "internalType": "address",
          "name": "from",
          "type": "address"
        },
        {
          "internalType": "address",
          "name": "to",
          "type": "address"
        },
        {
          "internalType": "uint256",
          "name": "tokenId",
          "type": "uint256"
        },
        {
          "internalType": "bytes",
          "name": "data",
          "type": "bytes"
        }
      ],
      "name": "safeTransferFrom",
      "outputs": [],
      "stateMutability": "nonpayable",
      "type": "function"
    },
    {
      "inputs": [
        {
          "internalType": "address",
          "name": "operator",
          "type": "address"
        },
        {
          "internalType": "bool",
          "name": "approved",
          "type": "bool"
        }
      ],
      "name": "setApprovalForAll",
      "outputs": [],
      "stateMutability": "nonpayable",
      "type": "function"
    },
    {
      "inputs": [
        {
          "internalType": "bytes4",
          "name": "interfaceId",
          "type": "bytes4"
        }
      ],
      "name": "supportsInterface",
      "outputs": [
        {
          "internalType": "bool",
          "name": "",
          "type": "bool"
        }
      ],
      "stateMutability": "view",
      "type": "function"
    },
    {
      "inputs": [],
      "name": "symbol",
      "outputs": [
        {
          "internalType": "string",
          "name": "",
          "type": "string"
        }
      ],
      "stateMutability": "view",
      "type": "function"
    },
    {
      "inputs": [
        {
          "internalType": "uint256",
          "name": "tokenId",
          "type": "uint256"
        }
      ],
      "name": "tokenURI",
      "outputs": [
        {
          "internalType": "string",
          "name": "",
          "type": "string"
        }
      ],
      "stateMutability": "view",
      "type": "function"
    },
    {
      "inputs": [
        {
          "internalType": "address",
          "name": "from",
          "type": "address"
        },
        {
          "internalType": "address",
          "name": "to",
          "type": "address"
        },
        {
          "internalType": "uint256",
          "name": "tokenId",
          "type": "uint256"
        }
      ],
      "name": "transferFrom",
      "outputs": [],
      "stateMutability": "nonpayable",
      "type": "function"
    }
  ],
  "bytecode": "0x60806040523480156200001157600080fd5b5060405162003258380380620032588339818101604052810190620000379190620006b6565b6040518060400160405280600981526020017f4f726620546f6b656e00000000000000000000000000000000000000000000008152506040518060400160405280600381526020017f4f524600000000000000000000000000000000000000000000000000000000008152508160009081620000b4919062000962565b508060019081620000c6919062000962565b505050620000dc816000620000f660201b60201c565b620000ef816001620000f660201b60201c565b5062000d75565b6200010882826200010c60201b60201c565b5050565b6200012e8282604051806020016040528060008152506200013260201b60201c565b5050565b620001448383620001a060201b60201c565b620001596000848484620003e660201b60201c565b6200019b576040517f08c379a0000000000000000000000000000000000000000000000000000000008152600401620001929062000ad0565b60405180910390fd5b505050565b600073ffffffffffffffffffffffffffffffffffffffff168273ffffffffffffffffffffffffffffffffffffffff160362000212576040517f08c379a0000000000000000000000000000000000000000000000000000000008152600401620002099062000b42565b60405180910390fd5b62000223816200058f60201b60201c565b1562000266576040517f08c379a00000000000000000000000000000000000000000000000000000000081526004016200025d9062000bb4565b60405180910390fd5b6200027c600083836001620005d860201b60201c565b6200028d816200058f60201b60201c565b15620002d0576040517f08c379a0000000000000000000000000000000000000000000000000000000008152600401620002c79062000bb4565b60405180910390fd5b6001600360008473ffffffffffffffffffffffffffffffffffffffff1673ffffffffffffffffffffffffffffffffffffffff16815260200190815260200160002060008282540192505081905550816002600083815260200190815260200160002060006101000a81548173ffffffffffffffffffffffffffffffffffffffff021916908373ffffffffffffffffffffffffffffffffffffffff160217905550808273ffffffffffffffffffffffffffffffffffffffff16600073ffffffffffffffffffffffffffffffffffffffff167fddf252ad1be2c89b69c2b068fc378daa952ba7f163c4a11628f55a4df523b3ef60405160405180910390a4620003e2600083836001620005de60201b60201c565b5050565b6000620004148473ffffffffffffffffffffffffffffffffffffffff16620005e460201b620009951760201c565b1562000582578373ffffffffffffffffffffffffffffffffffffffff1663150b7a02620004466200060760201b60201c565b8786866040518563ffffffff1660e01b81526004016200046a949392919062000c92565b6020604051808303816000875af1925050508015620004a957506040513d601f19601f82011682018060405250810190620004a6919062000d43565b60015b62000531573d8060008114620004dc576040519150601f19603f3d011682016040523d82523d6000602084013e620004e1565b606091505b50600081510362000529576040517f08c379a0000000000000000000000000000000000000000000000000000000008152600401620005209062000ad0565b60405180910390fd5b805181602001fd5b63150b7a0260e01b7bffffffffffffffffffffffffffffffffffffffffffffffffffffffff1916817bffffffffffffffffffffffffffffffffffffffffffffffffffffffff19161491505062000587565b600190505b949350505050565b60008073ffffffffffffffffffffffffffffffffffffffff16620005b9836200060f60201b60201c565b73ffffffffffffffffffffffffffffffffffffffff1614159050919050565b50505050565b50505050565b6000808273ffffffffffffffffffffffffffffffffffffffff163b119050919050565b600033905090565b60006002600083815260200190815260200160002060009054906101000a900473ffffffffffffffffffffffffffffffffffffffff169050919050565b600080fd5b600073ffffffffffffffffffffffffffffffffffffffff82169050919050565b60006200067e8262000651565b9050919050565b620006908162000671565b81146200069c57600080fd5b50565b600081519050620006b08162000685565b92915050565b600060208284031215620006cf57620006ce6200064c565b5b6000620006df848285016200069f565b91505092915050565b600081519050919050565b7f4e487b7100000000000000000000000000000000000000000000000000000000600052604160045260246000fd5b7f4e487b7100000000000000000000000000000000000000000000000000000000600052602260045260246000fd5b600060028204905060018216806200076a57607f821691505b60208210810362000780576200077f62000722565b5b50919050565b60008190508160005260206000209050919050565b60006020601f8301049050919050565b600082821b905092915050565b600060088302620007ea7fffffffffffffffffffffffffffffffffffffffffffffffffffffffffffffffff82620007ab565b620007f68683620007ab565b95508019841693508086168417925050509392505050565b6000819050919050565b6000819050919050565b6000620008436200083d62000837846200080e565b62000818565b6200080e565b9050919050565b6000819050919050565b6200085f8362000822565b620008776200086e826200084a565b848454620007b8565b825550505050565b600090565b6200088e6200087f565b6200089b81848462000854565b505050565b5b81811015620008c357620008b760008262000884565b600181019050620008a1565b5050565b601f8211156200091257620008dc8162000786565b620008e7846200079b565b81016020851015620008f7578190505b6200090f62000906856200079b565b830182620008a0565b50505b505050565b600082821c905092915050565b6000620009376000198460080262000917565b1980831691505092915050565b600062000952838362000924565b9150826002028217905092915050565b6200096d82620006e8565b67ffffffffffffffff811115620009895762000988620006f3565b5b62000995825462000751565b620009a2828285620008c7565b600060209050601f831160018114620009da5760008415620009c5578287015190505b620009d1858262000944565b86555062000a41565b601f198416620009ea8662000786565b60005b8281101562000a1457848901518255600182019150602085019450602081019050620009ed565b8683101562000a34578489015162000a30601f89168262000924565b8355505b6001600288020188555050505b505050505050565b600082825260208201905092915050565b7f4552433732313a207472616e7366657220746f206e6f6e20455243373231526560008201527f63656976657220696d706c656d656e7465720000000000000000000000000000602082015250565b600062000ab860328362000a49565b915062000ac58262000a5a565b604082019050919050565b6000602082019050818103600083015262000aeb8162000aa9565b9050919050565b7f4552433732313a206d696e7420746f20746865207a65726f2061646472657373600082015250565b600062000b2a60208362000a49565b915062000b378262000af2565b602082019050919050565b6000602082019050818103600083015262000b5d8162000b1b565b9050919050565b7f4552433732313a20746f6b656e20616c7265616479206d696e74656400000000600082015250565b600062000b9c601c8362000a49565b915062000ba98262000b64565b602082019050919050565b6000602082019050818103600083015262000bcf8162000b8d565b9050919050565b62000be18162000671565b82525050565b62000bf2816200080e565b82525050565b600081519050919050565b600082825260208201905092915050565b60005b8381101562000c3457808201518184015260208101905062000c17565b60008484015250505050565b6000601f19601f8301169050919050565b600062000c5e8262000bf8565b62000c6a818562000c03565b935062000c7c81856020860162000c14565b62000c878162000c40565b840191505092915050565b600060808201905062000ca9600083018762000bd6565b62000cb8602083018662000bd6565b62000cc7604083018562000be7565b818103606083015262000cdb818462000c51565b905095945050505050565b60007fffffffff0000000000000000000000000000000000000000000000000000000082169050919050565b62000d1d8162000ce6565b811462000d2957600080fd5b50565b60008151905062000d3d8162000d12565b92915050565b60006020828403121562000d5c5762000d5b6200064c565b5b600062000d6c8482850162000d2c565b91505092915050565b6124d38062000d856000396000f3fe608060405234801561001057600080fd5b50600436106100ea5760003560e01c806370a082311161008c578063a22cb46511610066578063a22cb4651461025b578063b88d4fde14610277578063c87b56dd14610293578063e985e9c5146102c3576100ea565b806370a08231146101f157806395d89b4114610221578063a14481941461023f576100ea565b8063095ea7b3116100c8578063095ea7b31461016d57806323b872dd1461018957806342842e0e146101a55780636352211e146101c1576100ea565b806301ffc9a7146100ef57806306fdde031461011f578063081812fc1461013d575b600080fd5b610109600480360381019061010491906117cf565b6102f3565b6040516101169190611817565b60405180910390f35b6101276103d5565b60405161013491906118c2565b60405180910390f35b6101576004803603810190610152919061191a565b610467565b6040516101649190611988565b60405180910390f35b610187600480360381019061018291906119cf565b6104ad565b005b6101a3600480360381019061019e9190611a0f565b6105c4565b005b6101bf60048036038101906101ba9190611a0f565b610624565b005b6101db60048036038101906101d6919061191a565b610644565b6040516101e89190611988565b60405180910390f35b61020b60048036038101906102069190611a62565b6106ca565b6040516102189190611a9e565b60405180910390f35b610229610781565b60405161023691906118c2565b60405180910390f35b610259600480360381019061025491906119cf565b610813565b005b61027560048036038101906102709190611ae5565b610821565b005b610291600480360381019061028c9190611c5a565b610837565b005b6102ad60048036038101906102a8919061191a565b610899565b6040516102ba91906118c2565b60405180910390f35b6102dd60048036038101906102d89190611cdd565b610901565b6040516102ea9190611817565b60405180910390f35b60007f80ac58cd000000000000000000000000000000000000000000000000000000007bffffffffffffffffffffffffffffffffffffffffffffffffffffffff1916827bffffffffffffffffffffffffffffffffffffffffffffffffffffffff191614806103be57507f5b5e139f000000000000000000000000000000000000000000000000000000007bffffffffffffffffffffffffffffffffffffffffffffffffffffffff1916827bffffffffffffffffffffffffffffffffffffffffffffffffffffffff1916145b806103ce57506103cd826109b8565b5b9050919050565b6060600080546103e490611d4c565b80601f016020809104026020016040519081016040528092919081815260200182805461041090611d4c565b801561045d5780601f106104325761010080835404028352916020019161045d565b820191906000526020600020905b81548152906001019060200180831161044057829003601f168201915b5050505050905090565b600061047282610a22565b6004600083815260200190815260200160002060009054906101000a900473ffffffffffffffffffffffffffffffffffffffff169050919050565b60006104b882610644565b90508073ffffffffffffffffffffffffffffffffffffffff168373ffffffffffffffffffffffffffffffffffffffff1603610528576040517f08c379a000000000000000000000000000000000000000000000000000000000815260040161051f90611def565b60405180910390fd5b8073ffffffffffffffffffffffffffffffffffffffff16610547610a6d565b73ffffffffffffffffffffffffffffffffffffffff161480610576575061057581610570610a6d565b610901565b5b6105b5576040517f08c379a00000000000000000000000000000000000000000000000000000000081526004016105ac90611e81565b60405180910390fd5b6105bf8383610a75565b505050565b6105d56105cf610a6d565b82610b2e565b610614576040517f08c379a000000000000000000000000000000000000000000000000000000000815260040161060b90611f13565b60405180910390fd5b61061f838383610bc3565b505050565b61063f83838360405180602001604052806000815250610837565b505050565b60008061065083610ebc565b9050600073ffffffffffffffffffffffffffffffffffffffff168173ffffffffffffffffffffffffffffffffffffffff16036106c1576040517f08c379a00000000000000000000000000000000000000000000000000000000081526004016106b890611f7f565b60405180910390fd5b80915050919050565b60008073ffffffffffffffffffffffffffffffffffffffff168273ffffffffffffffffffffffffffffffffffffffff160361073a576040517f08c379a000000000000000000000000000000000000000000000000000000000815260040161073190612011565b60405180910390fd5b600360008373ffffffffffffffffffffffffffffffffffffffff1673ffffffffffffffffffffffffffffffffffffffff168152602001908152602001600020549050919050565b60606001805461079090611d4c565b80601f01602080910402602001604051908101604052809291908181526020018280546107bc90611d4c565b80156108095780601f106107de57610100808354040283529160200191610809565b820191906000526020600020905b8154815290600101906020018083116107ec57829003601f168201915b5050505050905090565b61081d8282610ef9565b5050565b61083361082c610a6d565b8383610f17565b5050565b610848610842610a6d565b83610b2e565b610887576040517f08c379a000000000000000000000000000000000000000000000000000000000815260040161087e90611f13565b60405180910390fd5b61089384848484611083565b50505050565b60606108a482610a22565b60006108ae6110df565b905060008151116108ce57604051806020016040528060008152506108f9565b806108d8846110f6565b6040516020016108e992919061206d565b6040516020818303038152906040525b915050919050565b6000600560008473ffffffffffffffffffffffffffffffffffffffff1673ffffffffffffffffffffffffffffffffffffffff16815260200190815260200160002060008373ffffffffffffffffffffffffffffffffffffffff1673ffffffffffffffffffffffffffffffffffffffff16815260200190815260200160002060009054906101000a900460ff16905092915050565b6000808273ffffffffffffffffffffffffffffffffffffffff163b119050919050565b60007f01ffc9a7000000000000000000000000000000000000000000000000000000007bffffffffffffffffffffffffffffffffffffffffffffffffffffffff1916827bffffffffffffffffffffffffffffffffffffffffffffffffffffffff1916149050919050565b610a2b816111c4565b610a6a576040517f08c379a0000000000000000000000000000000000000000000000000000000008152600401610a6190611f7f565b60405180910390fd5b50565b600033905090565b816004600083815260200190815260200160002060006101000a81548173ffffffffffffffffffffffffffffffffffffffff021916908373ffffffffffffffffffffffffffffffffffffffff160217905550808273ffffffffffffffffffffffffffffffffffffffff16610ae883610644565b73ffffffffffffffffffffffffffffffffffffffff167f8c5be1e5ebec7d5bd14f71427d1e84f3dd0314c0f7b2291e5b200ac8c7c3b92560405160405180910390a45050565b600080610b3a83610644565b90508073ffffffffffffffffffffffffffffffffffffffff168473ffffffffffffffffffffffffffffffffffffffff161480610b7c5750610b7b8185610901565b5b80610bba57508373ffffffffffffffffffffffffffffffffffffffff16610ba284610467565b73ffffffffffffffffffffffffffffffffffffffff16145b91505092915050565b8273ffffffffffffffffffffffffffffffffffffffff16610be382610644565b73ffffffffffffffffffffffffffffffffffffffff1614610c39576040517f08c379a0000000000000000000000000000000000000000000000000000000008152600401610c3090612103565b60405180910390fd5b600073ffffffffffffffffffffffffffffffffffffffff168273ffffffffffffffffffffffffffffffffffffffff1603610ca8576040517f08c379a0000000000000000000000000000000000000000000000000000000008152600401610c9f90612195565b60405180910390fd5b610cb58383836001611205565b8273ffffffffffffffffffffffffffffffffffffffff16610cd582610644565b73ffffffffffffffffffffffffffffffffffffffff1614610d2b576040517f08c379a0000000000000000000000000000000000000000000000000000000008152600401610d2290612103565b60405180910390fd5b6004600082815260200190815260200160002060006101000a81549073ffffffffffffffffffffffffffffffffffffffff02191690556001600360008573ffffffffffffffffffffffffffffffffffffffff1673ffffffffffffffffffffffffffffffffffffffff168152602001908152602001600020600082825403925050819055506001600360008473ffffffffffffffffffffffffffffffffffffffff1673ffffffffffffffffffffffffffffffffffffffff16815260200190815260200160002060008282540192505081905550816002600083815260200190815260200160002060006101000a81548173ffffffffffffffffffffffffffffffffffffffff021916908373ffffffffffffffffffffffffffffffffffffffff160217905550808273ffffffffffffffffffffffffffffffffffffffff168473ffffffffffffffffffffffffffffffffffffffff167fddf252ad1be2c89b69c2b068fc378daa952ba7f163c4a11628f55a4df523b3ef60405160405180910390a4610eb7838383600161120b565b505050565b60006002600083815260200190815260200160002060009054906101000a900473ffffffffffffffffffffffffffffffffffffffff169050919050565b610f13828260405180602001604052806000815250611211565b5050565b8173ffffffffffffffffffffffffffffffffffffffff168373ffffffffffffffffffffffffffffffffffffffff1603610f85576040517f08c379a0000000000000000000000000000000000000000000000000000000008152600401610f7c90612201565b60405180910390fd5b80600560008573ffffffffffffffffffffffffffffffffffffffff1673ffffffffffffffffffffffffffffffffffffffff16815260200190815260200160002060008473ffffffffffffffffffffffffffffffffffffffff1673ffffffffffffffffffffffffffffffffffffffff16815260200190815260200160002060006101000a81548160ff0219169083151502179055508173ffffffffffffffffffffffffffffffffffffffff168373ffffffffffffffffffffffffffffffffffffffff167f17307eab39ab6107e8899845ad3d59bd9653f200f220920489ca2b5937696c31836040516110769190611817565b60405180910390a3505050565b61108e848484610bc3565b61109a8484848461126c565b6110d9576040517f08c379a00000000000000000000000000000000000000000000000000000000081526004016110d090612293565b60405180910390fd5b50505050565b606060405180602001604052806000815250905090565b606060006001611105846113f3565b01905060008167ffffffffffffffff81111561112457611123611b2f565b5b6040519080825280601f01601f1916602001820160405280156111565781602001600182028036833780820191505090505b509050600082602001820190505b6001156111b9578080600190039150507f3031323334353637383961626364656600000000000000000000000000000000600a86061a8153600a85816111ad576111ac6122b3565b5b04945060008503611164575b819350505050919050565b60008073ffffffffffffffffffffffffffffffffffffffff166111e683610ebc565b73ffffffffffffffffffffffffffffffffffffffff1614159050919050565b50505050565b50505050565b61121b8383611546565b611228600084848461126c565b611267576040517f08c379a000000000000000000000000000000000000000000000000000000000815260040161125e90612293565b60405180910390fd5b505050565b600061128d8473ffffffffffffffffffffffffffffffffffffffff16610995565b156113e6578373ffffffffffffffffffffffffffffffffffffffff1663150b7a026112b6610a6d565b8786866040518563ffffffff1660e01b81526004016112d89493929190612337565b6020604051808303816000875af192505050801561131457506040513d601f19601f820116820180604052508101906113119190612398565b60015b611396573d8060008114611344576040519150601f19603f3d011682016040523d82523d6000602084013e611349565b606091505b50600081510361138e576040517f08c379a000000000000000000000000000000000000000000000000000000000815260040161138590612293565b60405180910390fd5b805181602001fd5b63150b7a0260e01b7bffffffffffffffffffffffffffffffffffffffffffffffffffffffff1916817bffffffffffffffffffffffffffffffffffffffffffffffffffffffff1916149150506113eb565b600190505b949350505050565b600080600090507a184f03e93ff9f4daa797ed6e38ed64bf6a1f0100000000000000008310611451577a184f03e93ff9f4daa797ed6e38ed64bf6a1f0100000000000000008381611447576114466122b3565b5b0492506040810190505b6d04ee2d6d415b85acef8100000000831061148e576d04ee2d6d415b85acef81000000008381611484576114836122b3565b5b0492506020810190505b662386f26fc1000083106114bd57662386f26fc1000083816114b3576114b26122b3565b5b0492506010810190505b6305f5e10083106114e6576305f5e10083816114dc576114db6122b3565b5b0492506008810190505b612710831061150b576127108381611501576115006122b3565b5b0492506004810190505b6064831061152e5760648381611524576115236122b3565b5b0492506002810190505b600a831061153d576001810190505b80915050919050565b600073ffffffffffffffffffffffffffffffffffffffff168273ffffffffffffffffffffffffffffffffffffffff16036115b5576040517f08c379a00000000000000000000000000000000000000000000000000000000081526004016115ac90612411565b60405180910390fd5b6115be816111c4565b156115fe576040517f08c379a00000000000000000000000000000000000000000000000000000000081526004016115f59061247d565b60405180910390fd5b61160c600083836001611205565b611615816111c4565b15611655576040517f08c379a000000000000000000000000000000000000000000000000000000000815260040161164c9061247d565b60405180910390fd5b6001600360008473ffffffffffffffffffffffffffffffffffffffff1673ffffffffffffffffffffffffffffffffffffffff16815260200190815260200160002060008282540192505081905550816002600083815260200190815260200160002060006101000a81548173ffffffffffffffffffffffffffffffffffffffff021916908373ffffffffffffffffffffffffffffffffffffffff160217905550808273ffffffffffffffffffffffffffffffffffffffff16600073ffffffffffffffffffffffffffffffffffffffff167fddf252ad1be2c89b69c2b068fc378daa952ba7f163c4a11628f55a4df523b3ef60405160405180910390a461175f60008383600161120b565b5050565b6000604051905090565b600080fd5b600080fd5b60007fffffffff0000000000000000000000000000000000000000000000000000000082169050919050565b6117ac81611777565b81146117b757600080fd5b50565b6000813590506117c9816117a3565b92915050565b6000602082840312156117e5576117e461176d565b5b60006117f3848285016117ba565b91505092915050565b60008115159050919050565b611811816117fc565b82525050565b600060208201905061182c6000830184611808565b92915050565b600081519050919050565b600082825260208201905092915050565b60005b8381101561186c578082015181840152602081019050611851565b60008484015250505050565b6000601f19601f8301169050919050565b600061189482611832565b61189e818561183d565b93506118ae81856020860161184e565b6118b781611878565b840191505092915050565b600060208201905081810360008301526118dc8184611889565b905092915050565b6000819050919050565b6118f7816118e4565b811461190257600080fd5b50565b600081359050611914816118ee565b92915050565b6000602082840312156119305761192f61176d565b5b600061193e84828501611905565b91505092915050565b600073ffffffffffffffffffffffffffffffffffffffff82169050919050565b600061197282611947565b9050919050565b61198281611967565b82525050565b600060208201905061199d6000830184611979565b92915050565b6119ac81611967565b81146119b757600080fd5b50565b6000813590506119c9816119a3565b92915050565b600080604083850312156119e6576119e561176d565b5b60006119f4858286016119ba565b9250506020611a0585828601611905565b9150509250929050565b600080600060608486031215611a2857611a2761176d565b5b6000611a36868287016119ba565b9350506020611a47868287016119ba565b9250506040611a5886828701611905565b9150509250925092565b600060208284031215611a7857611a7761176d565b5b6000611a86848285016119ba565b91505092915050565b611a98816118e4565b82525050565b6000602082019050611ab36000830184611a8f565b92915050565b611ac2816117fc565b8114611acd57600080fd5b50565b600081359050611adf81611ab9565b92915050565b60008060408385031215611afc57611afb61176d565b5b6000611b0a858286016119ba565b9250506020611b1b85828601611ad0565b9150509250929050565b600080fd5b600080fd5b7f4e487b7100000000000000000000000000000000000000000000000000000000600052604160045260246000fd5b611b6782611878565b810181811067ffffffffffffffff82111715611b8657611b85611b2f565b5b80604052505050565b6000611b99611763565b9050611ba58282611b5e565b919050565b600067ffffffffffffffff821115611bc557611bc4611b2f565b5b611bce82611878565b9050602081019050919050565b82818337600083830152505050565b6000611bfd611bf884611baa565b611b8f565b905082815260208101848484011115611c1957611c18611b2a565b5b611c24848285611bdb565b509392505050565b600082601f830112611c4157611c40611b25565b5b8135611c51848260208601611bea565b91505092915050565b60008060008060808587031215611c7457611c7361176d565b5b6000611c82878288016119ba565b9450506020611c93878288016119ba565b9350506040611ca487828801611905565b925050606085013567ffffffffffffffff811115611cc557611cc4611772565b5b611cd187828801611c2c565b91505092959194509250565b60008060408385031215611cf457611cf361176d565b5b6000611d02858286016119ba565b9250506020611d13858286016119ba565b9150509250929050565b7f4e487b7100000000000000000000000000000000000000000000000000000000600052602260045260246000fd5b60006002820490506001821680611d6457607f821691505b602082108103611d7757611d76611d1d565b5b50919050565b7f4552433732313a20617070726f76616c20746f2063757272656e74206f776e6560008201527f7200000000000000000000000000000000000000000000000000000000000000602082015250565b6000611dd960218361183d565b9150611de482611d7d565b604082019050919050565b60006020820190508181036000830152611e0881611dcc565b9050919050565b7f4552433732313a20617070726f76652063616c6c6572206973206e6f7420746f60008201527f6b656e206f776e6572206f7220617070726f76656420666f7220616c6c000000602082015250565b6000611e6b603d8361183d565b9150611e7682611e0f565b604082019050919050565b60006020820190508181036000830152611e9a81611e5e565b9050919050565b7f4552433732313a2063616c6c6572206973206e6f7420746f6b656e206f776e6560008201527f72206f7220617070726f76656400000000000000000000000000000000000000602082015250565b6000611efd602d8361183d565b9150611f0882611ea1565b604082019050919050565b60006020820190508181036000830152611f2c81611ef0565b9050919050565b7f4552433732313a20696e76616c696420746f6b656e2049440000000000000000600082015250565b6000611f6960188361183d565b9150611f7482611f33565b602082019050919050565b60006020820190508181036000830152611f9881611f5c565b9050919050565b7f4552433732313a2061646472657373207a65726f206973206e6f74206120766160008201527f6c6964206f776e65720000000000000000000000000000000000000000000000602082015250565b6000611ffb60298361183d565b915061200682611f9f565b604082019050919050565b6000602082019050818103600083015261202a81611fee565b9050919050565b600081905092915050565b600061204782611832565b6120518185612031565b935061206181856020860161184e565b80840191505092915050565b6000612079828561203c565b9150612085828461203c565b91508190509392505050565b7f4552433732313a207472616e736665722066726f6d20696e636f72726563742060008201527f6f776e6572000000000000000000000000000000000000000000000000000000602082015250565b60006120ed60258361183d565b91506120f882612091565b604082019050919050565b6000602082019050818103600083015261211c816120e0565b9050919050565b7f4552433732313a207472616e7366657220746f20746865207a65726f2061646460008201527f7265737300000000000000000000000000000000000000000000000000000000602082015250565b600061217f60248361183d565b915061218a82612123565b604082019050919050565b600060208201905081810360008301526121ae81612172565b9050919050565b7f4552433732313a20617070726f766520746f2063616c6c657200000000000000600082015250565b60006121eb60198361183d565b91506121f6826121b5565b602082019050919050565b6000602082019050818103600083015261221a816121de565b9050919050565b7f4552433732313a207472616e7366657220746f206e6f6e20455243373231526560008201527f63656976657220696d706c656d656e7465720000000000000000000000000000602082015250565b600061227d60328361183d565b915061228882612221565b604082019050919050565b600060208201905081810360008301526122ac81612270565b9050919050565b7f4e487b7100000000000000000000000000000000000000000000000000000000600052601260045260246000fd5b600081519050919050565b600082825260208201905092915050565b6000612309826122e2565b61231381856122ed565b935061232381856020860161184e565b61232c81611878565b840191505092915050565b600060808201905061234c6000830187611979565b6123596020830186611979565b6123666040830185611a8f565b818103606083015261237881846122fe565b905095945050505050565b600081519050612392816117a3565b92915050565b6000602082840312156123ae576123ad61176d565b5b60006123bc84828501612383565b91505092915050565b7f4552433732313a206d696e7420746f20746865207a65726f2061646472657373600082015250565b60006123fb60208361183d565b9150612406826123c5565b602082019050919050565b6000602082019050818103600083015261242a816123ee565b9050919050565b7f4552433732313a20746f6b656e20616c7265616479206d696e74656400000000600082015250565b6000612467601c8361183d565b915061247282612431565b602082019050919050565b600060208201905081810360008301526124968161245a565b905091905056fea2646970667358221220eb383b2bebd50aeed6ac513083aded5afbc6697e6a99b4b65346b3e98317473d64736f6c63430008110033",
  "linkReferences": {},
  "deployedLinkReferences": {}
}