{
  "_format": "hh-sol-artifact-1",
  "contractName": "MultiSigCore",
  "sourceName": "contracts/MultiSigWallet2.sol",
  "abi": [
    {
      "inputs": [
        {
          "internalType": "address[4]",
          "name": "_listOfOwners",
          "type": "address[4]"
        }
      ],
      "stateMutability": "nonpayable",
      "type": "constructor"
    },
    {
      "anonymous": false,
      "inputs": [
        {
          "indexed": true,
          "internalType": "address",
          "name": "sender",
          "type": "address"
        },
        {
          "indexed": true,
          "internalType": "address",
          "name": "token",
          "type": "address"
        },
        {
          "indexed": true,
          "internalType": "uint256",
          "name": "amount",
          "type": "uint256"
        },
        {
          "indexed": false,
          "internalType": "uint256",
          "name": "ContractBalance",
          "type": "uint256"
        }
      ],
      "name": "ERC20Deposited",
      "type": "event"
    },
    {
      "anonymous": false,
      "inputs": [
        {
          "indexed": true,
          "internalType": "address",
          "name": "tokenAddress",
          "type": "address"
        },
        {
          "indexed": true,
          "internalType": "address",
          "name": "to",
          "type": "address"
        },
        {
          "indexed": true,
          "internalType": "uint256",
          "name": "amount",
          "type": "uint256"
        }
      ],
      "name": "ERC20TransactionExecuted",
      "type": "event"
    },
    {
      "anonymous": false,
      "inputs": [
        {
          "indexed": true,
          "internalType": "address",
          "name": "sender",
          "type": "address"
        },
        {
          "indexed": true,
          "internalType": "uint256",
          "name": "amount",
          "type": "uint256"
        },
        {
          "indexed": true,
          "internalType": "uint256",
          "name": "ContractBalance",
          "type": "uint256"
        }
      ],
      "name": "EthDeposited",
      "type": "event"
    },
    {
      "anonymous": false,
      "inputs": [
        {
          "indexed": true,
          "internalType": "address",
          "name": "to",
          "type": "address"
        },
        {
          "indexed": true,
          "internalType": "uint256",
          "name": "amount",
          "type": "uint256"
        }
      ],
      "name": "EthTransactionExecuted",
      "type": "event"
    },
    {
      "anonymous": false,
      "inputs": [
        {
          "indexed": true,
          "internalType": "address",
          "name": "sender",
          "type": "address"
        },
        {
          "indexed": true,
          "internalType": "address",
          "name": "nftContract",
          "type": "address"
        },
        {
          "indexed": true,
          "internalType": "uint256",
          "name": "tokenId",
          "type": "uint256"
        },
        {
          "indexed": false,
          "internalType": "uint256",
          "name": "ContractBalance",
          "type": "uint256"
        }
      ],
      "name": "NFTDeposited",
      "type": "event"
    },
    {
      "anonymous": false,
      "inputs": [
        {
          "indexed": true,
          "internalType": "address",
          "name": "tokenAddress",
          "type": "address"
        },
        {
          "indexed": true,
          "internalType": "address",
          "name": "to",
          "type": "address"
        },
        {
          "indexed": true,
          "internalType": "uint256",
          "name": "tokenId",
          "type": "uint256"
        }
      ],
      "name": "NFTTransactionExecuted",
      "type": "event"
    },
    {
      "inputs": [
        {
          "internalType": "address",
          "name": "_tokenAddress",
          "type": "address"
        },
        {
          "internalType": "uint256",
          "name": "_amount",
          "type": "uint256"
        }
      ],
      "name": "depositERC20",
      "outputs": [],
      "stateMutability": "nonpayable",
      "type": "function"
    },
    {
      "inputs": [],
      "name": "depositEth",
      "outputs": [],
      "stateMutability": "payable",
      "type": "function"
    },
    {
      "inputs": [
        {
          "internalType": "address",
          "name": "_tokenAddress",
          "type": "address"
        },
        {
          "internalType": "uint256",
          "name": "_tokenId",
          "type": "uint256"
        }
      ],
      "name": "depositNFT",
      "outputs": [],
      "stateMutability": "nonpayable",
      "type": "function"
    },
    {
      "inputs": [
        {
          "internalType": "bytes32",
          "name": "",
          "type": "bytes32"
        }
      ],
      "name": "executed",
      "outputs": [
        {
          "internalType": "bool",
          "name": "",
          "type": "bool"
        }
      ],
      "stateMutability": "view",
      "type": "function"
    },
    {
      "inputs": [
        {
          "internalType": "address",
          "name": "_tokenAddress",
          "type": "address"
        }
      ],
      "name": "getErc20Balance",
      "outputs": [
        {
          "internalType": "uint256",
          "name": "",
          "type": "uint256"
        }
      ],
      "stateMutability": "view",
      "type": "function"
    },
    {
      "inputs": [
        {
          "internalType": "address",
          "name": "_to",
          "type": "address"
        },
        {
          "internalType": "uint256",
          "name": "_amount",
          "type": "uint256"
        },
        {
          "internalType": "uint256",
          "name": "_nonce",
          "type": "uint256"
        }
      ],
      "name": "getEthTransferHash",
      "outputs": [
        {
          "internalType": "bytes32",
          "name": "",
          "type": "bytes32"
        }
      ],
      "stateMutability": "view",
      "type": "function"
    },
    {
      "inputs": [],
      "name": "getEtherBalance",
      "outputs": [
        {
          "internalType": "uint256",
          "name": "",
          "type": "uint256"
        }
      ],
      "stateMutability": "view",
      "type": "function"
    },
    {
      "inputs": [
        {
          "internalType": "address",
          "name": "_tokenAddress",
          "type": "address"
        }
      ],
      "name": "getNFTBalance",
      "outputs": [
        {
          "internalType": "uint256",
          "name": "",
          "type": "uint256"
        }
      ],
      "stateMutability": "view",
      "type": "function"
    },
    {
      "inputs": [],
      "name": "getOwners",
      "outputs": [
        {
          "internalType": "address[4]",
          "name": "",
          "type": "address[4]"
        }
      ],
      "stateMutability": "view",
      "type": "function"
    },
    {
      "inputs": [
        {
          "internalType": "address",
          "name": "_tokenContract",
          "type": "address"
        },
        {
          "internalType": "address",
          "name": "_to",
          "type": "address"
        },
        {
          "internalType": "uint256",
          "name": "_amountOrTokenId",
          "type": "uint256"
        },
        {
          "internalType": "uint256",
          "name": "_nonce",
          "type": "uint256"
        }
      ],
      "name": "getTokenTransferHash",
      "outputs": [
        {
          "internalType": "bytes32",
          "name": "",
          "type": "bytes32"
        }
      ],
      "stateMutability": "view",
      "type": "function"
    },
    {
      "inputs": [
        {
          "internalType": "address",
          "name": "",
          "type": "address"
        }
      ],
      "name": "isOwner",
      "outputs": [
        {
          "internalType": "bool",
          "name": "",
          "type": "bool"
        }
      ],
      "stateMutability": "view",
      "type": "function"
    },
    {
      "inputs": [],
      "name": "nonce",
      "outputs": [
        {
          "internalType": "uint256",
          "name": "",
          "type": "uint256"
        }
      ],
      "stateMutability": "view",
      "type": "function"
    },
    {
      "inputs": [
        {
          "internalType": "address",
          "name": "operator",
          "type": "address"
        },
        {
          "internalType": "address",
          "name": "from",
          "type": "address"
        },
        {
          "internalType": "uint256",
          "name": "tokenId",
          "type": "uint256"
        },
        {
          "internalType": "bytes",
          "name": "data",
          "type": "bytes"
        }
      ],
      "name": "onERC721Received",
      "outputs": [
        {
          "internalType": "bytes4",
          "name": "",
          "type": "bytes4"
        }
      ],
      "stateMutability": "nonpayable",
      "type": "function"
    },
    {
      "inputs": [
        {
          "internalType": "uint256",
          "name": "",
          "type": "uint256"
        }
      ],
      "name": "owners",
      "outputs": [
        {
          "internalType": "address",
          "name": "",
          "type": "address"
        }
      ],
      "stateMutability": "view",
      "type": "function"
    },
    {
      "inputs": [
        {
          "internalType": "address",
          "name": "_tokenAddress",
          "type": "address"
        },
        {
          "internalType": "address",
          "name": "_to",
          "type": "address"
        },
        {
          "internalType": "uint256",
          "name": "_amount",
          "type": "uint256"
        },
        {
          "internalType": "bytes[]",
          "name": "_sigs",
          "type": "bytes[]"
        }
      ],
      "name": "transferErc20",
      "outputs": [],
      "stateMutability": "nonpayable",
      "type": "function"
    },
    {
      "inputs": [
        {
          "internalType": "address",
          "name": "_to",
          "type": "address"
        },
        {
          "internalType": "uint256",
          "name": "_amount",
          "type": "uint256"
        },
        {
          "internalType": "bytes[]",
          "name": "_sigs",
          "type": "bytes[]"
        }
      ],
      "name": "transferEth",
      "outputs": [],
      "stateMutability": "nonpayable",
      "type": "function"
    },
    {
      "inputs": [
        {
          "internalType": "address",
          "name": "_tokenAddress",
          "type": "address"
        },
        {
          "internalType": "address",
          "name": "_to",
          "type": "address"
        },
        {
          "internalType": "uint256",
          "name": "_tokenId",
          "type": "uint256"
        },
        {
          "internalType": "bytes[]",
          "name": "_sigs",
          "type": "bytes[]"
        }
      ],
      "name": "transferNFT",
      "outputs": [],
      "stateMutability": "nonpayable",
      "type": "function"
    },
    {
      "stateMutability": "payable",
      "type": "receive"
    }
  ],
  "bytecode": "0x60806040523480156200001157600080fd5b506040516200339d3803806200339d8339818101604052810190620000379190620005f5565b60016000819055508060006004811062000056576200005562000627565b5b6020020151600260006004811062000073576200007262000627565b5b0160006101000a81548173ffffffffffffffffffffffffffffffffffffffff021916908373ffffffffffffffffffffffffffffffffffffffff16021790555080600160048110620000c957620000c862000627565b5b60200201516002600160048110620000e657620000e562000627565b5b0160006101000a81548173ffffffffffffffffffffffffffffffffffffffff021916908373ffffffffffffffffffffffffffffffffffffffff160217905550806002600481106200013c576200013b62000627565b5b60200201516002806004811062000158576200015762000627565b5b0160006101000a81548173ffffffffffffffffffffffffffffffffffffffff021916908373ffffffffffffffffffffffffffffffffffffffff16021790555080600360048110620001ae57620001ad62000627565b5b60200201516002600360048110620001cb57620001ca62000627565b5b0160006101000a81548173ffffffffffffffffffffffffffffffffffffffff021916908373ffffffffffffffffffffffffffffffffffffffff1602179055506001600860008360006004811062000227576200022662000627565b5b602002015173ffffffffffffffffffffffffffffffffffffffff1673ffffffffffffffffffffffffffffffffffffffff16815260200190815260200160002060006101000a81548160ff021916908315150217905550600160086000836001600481106200029a576200029962000627565b5b602002015173ffffffffffffffffffffffffffffffffffffffff1673ffffffffffffffffffffffffffffffffffffffff16815260200190815260200160002060006101000a81548160ff021916908315150217905550600160086000836002600481106200030d576200030c62000627565b5b602002015173ffffffffffffffffffffffffffffffffffffffff1673ffffffffffffffffffffffffffffffffffffffff16815260200190815260200160002060006101000a81548160ff0219169083151502179055506001600860008360036004811062000380576200037f62000627565b5b602002015173ffffffffffffffffffffffffffffffffffffffff1673ffffffffffffffffffffffffffffffffffffffff16815260200190815260200160002060006101000a81548160ff02191690831515021790555033600660006101000a81548173ffffffffffffffffffffffffffffffffffffffff021916908373ffffffffffffffffffffffffffffffffffffffff1602179055505062000656565b6000604051905090565b600080fd5b600080fd5b6000601f19601f8301169050919050565b7f4e487b7100000000000000000000000000000000000000000000000000000000600052604160045260246000fd5b6200047d8262000432565b810181811067ffffffffffffffff821117156200049f576200049e62000443565b5b80604052505050565b6000620004b46200041e565b9050620004c2828262000472565b919050565b600067ffffffffffffffff821115620004e557620004e462000443565b5b602082029050919050565b600080fd5b600073ffffffffffffffffffffffffffffffffffffffff82169050919050565b60006200052282620004f5565b9050919050565b620005348162000515565b81146200054057600080fd5b50565b600081519050620005548162000529565b92915050565b6000620005716200056b84620004c7565b620004a8565b905080602084028301858111156200058e576200058d620004f0565b5b835b81811015620005bb5780620005a6888262000543565b84526020840193505060208101905062000590565b5050509392505050565b600082601f830112620005dd57620005dc6200042d565b5b6004620005ec8482856200055a565b91505092915050565b6000608082840312156200060e576200060d62000428565b5b60006200061e84828501620005c5565b91505092915050565b7f4e487b7100000000000000000000000000000000000000000000000000000000600052603260045260246000fd5b612d3780620006666000396000f3fe6080604052600436106101025760003560e01c806397feb92611610095578063affed0e011610064578063affed0e01461039a578063bf8ebd85146103c5578063cc42010b14610402578063d47ed31b1461043f578063ea46193e146104685761014e565b806397feb926146102e05780639b5b9b1814610309578063a0e67e2b14610332578063a9fcfb331461035d5761014e565b80633e44457a116100d15780633e44457a14610233578063439370b114610270578063765d7bb81461027a5780638b4e87d1146102a35761014e565b8063025e7c2714610153578063150b7a02146101905780632f54bf6e146101cd578063343ebd111461020a5761014e565b3661014e5747343373ffffffffffffffffffffffffffffffffffffffff167f3f7db3ccdc06492eb9fcca5fe34fcee7f7ddcca331e5053cb3534067b9a5323260405160405180910390a4005b600080fd5b34801561015f57600080fd5b5061017a60048036038101906101759190611bd3565b610493565b6040516101879190611c41565b60405180910390f35b34801561019c57600080fd5b506101b760048036038101906101b29190611ced565b6104c9565b6040516101c49190611db0565b60405180910390f35b3480156101d957600080fd5b506101f460048036038101906101ef9190611dcb565b6104de565b6040516102019190611e13565b60405180910390f35b34801561021657600080fd5b50610231600480360381019061022c9190612050565b6104fe565b005b34801561023f57600080fd5b5061025a600480360381019061025591906120bf565b610831565b604051610267919061213f565b60405180910390f35b61027861086c565b005b34801561028657600080fd5b506102a1600480360381019061029c919061215a565b610997565b005b3480156102af57600080fd5b506102ca60048036038101906102c591906121dd565b610d1e565b6040516102d7919061213f565b60405180910390f35b3480156102ec57600080fd5b5061030760048036038101906103029190612230565b610d56565b005b34801561031557600080fd5b50610330600480360381019061032b9190612230565b610fa4565b005b34801561033e57600080fd5b506103476111e0565b604051610354919061231b565b60405180910390f35b34801561036957600080fd5b50610384600480360381019061037f9190612362565b611261565b6040516103919190611e13565b60405180910390f35b3480156103a657600080fd5b506103af611281565b6040516103bc919061239e565b60405180910390f35b3480156103d157600080fd5b506103ec60048036038101906103e79190611dcb565b611287565b6040516103f9919061239e565b60405180910390f35b34801561040e57600080fd5b5061042960048036038101906104249190611dcb565b61130a565b604051610436919061239e565b60405180910390f35b34801561044b57600080fd5b506104666004803603810190610461919061215a565b61138d565b005b34801561047457600080fd5b5061047d61172f565b60405161048a919061239e565b60405180910390f35b600281600481106104a357600080fd5b016000915054906101000a900473ffffffffffffffffffffffffffffffffffffffff1681565b600063150b7a0260e01b905095945050505050565b60086020528060005260406000206000915054906101000a900460ff1681565b600860003373ffffffffffffffffffffffffffffffffffffffff1673ffffffffffffffffffffffffffffffffffffffff16815260200190815260200160002060009054906101000a900460ff16806105a35750600660009054906101000a900473ffffffffffffffffffffffffffffffffffffffff1673ffffffffffffffffffffffffffffffffffffffff163373ffffffffffffffffffffffffffffffffffffffff16145b6105e2576040517f08c379a00000000000000000000000000000000000000000000000000000000081526004016105d990612416565b60405180910390fd5b6105ea611737565b8147101561062d576040517f08c379a000000000000000000000000000000000000000000000000000000000815260040161062490612482565b60405180910390fd5b60016000815480929190610640906124d1565b9190505550600060015490506000610659858584610d1e565b90506007600082815260200190815260200160002060009054906101000a900460ff16156106bc576040517f08c379a00000000000000000000000000000000000000000000000000000000081526004016106b390612565565b60405180910390fd5b6106c68382611786565b610705576040517f08c379a00000000000000000000000000000000000000000000000000000000081526004016106fc906125d1565b60405180910390fd5b60016007600083815260200190815260200160002060006101000a81548160ff02191690831515021790555060008573ffffffffffffffffffffffffffffffffffffffff168560405161075790612622565b60006040518083038185875af1925050503d8060008114610794576040519150601f19603f3d011682016040523d82523d6000602084013e610799565b606091505b50509050806107dd576040517f08c379a00000000000000000000000000000000000000000000000000000000081526004016107d490612683565b60405180910390fd5b848673ffffffffffffffffffffffffffffffffffffffff167f78aa3d4f2910e65adebfe112cbc8865126f050ecb465ff2c3caf6306d6fca4c160405160405180910390a350505061082c61186d565b505050565b6000308486858560405160200161084c95949392919061270c565b604051602081830303815290604052805190602001209050949350505050565b600860003373ffffffffffffffffffffffffffffffffffffffff1673ffffffffffffffffffffffffffffffffffffffff16815260200190815260200160002060009054906101000a900460ff16806109115750600660009054906101000a900473ffffffffffffffffffffffffffffffffffffffff1673ffffffffffffffffffffffffffffffffffffffff163373ffffffffffffffffffffffffffffffffffffffff16145b610950576040517f08c379a000000000000000000000000000000000000000000000000000000000815260040161094790612416565b60405180910390fd5b47343373ffffffffffffffffffffffffffffffffffffffff167f3f7db3ccdc06492eb9fcca5fe34fcee7f7ddcca331e5053cb3534067b9a5323260405160405180910390a4565b600860003373ffffffffffffffffffffffffffffffffffffffff1673ffffffffffffffffffffffffffffffffffffffff16815260200190815260200160002060009054906101000a900460ff1680610a3c5750600660009054906101000a900473ffffffffffffffffffffffffffffffffffffffff1673ffffffffffffffffffffffffffffffffffffffff163373ffffffffffffffffffffffffffffffffffffffff16145b610a7b576040517f08c379a0000000000000000000000000000000000000000000000000000000008152600401610a7290612416565b60405180910390fd5b818473ffffffffffffffffffffffffffffffffffffffff166370a08231306040518263ffffffff1660e01b8152600401610ab59190611c41565b602060405180830381865afa158015610ad2573d6000803e3d6000fd5b505050506040513d601f19601f82011682018060405250810190610af69190612780565b1015610b37576040517f08c379a0000000000000000000000000000000000000000000000000000000008152600401610b2e906127f9565b60405180910390fd5b60016000815480929190610b4a906124d1565b9190505550600060015490506000610b6486868685610831565b90506007600082815260200190815260200160002060009054906101000a900460ff1615610bc7576040517f08c379a0000000000000000000000000000000000000000000000000000000008152600401610bbe90612565565b60405180910390fd5b610bd18382611786565b610c10576040517f08c379a0000000000000000000000000000000000000000000000000000000008152600401610c07906125d1565b60405180910390fd5b60016007600083815260200190815260200160002060006101000a81548160ff0219169083151502179055508573ffffffffffffffffffffffffffffffffffffffff1663a9059cbb86866040518363ffffffff1660e01b8152600401610c77929190612819565b6020604051808303816000875af1158015610c96573d6000803e3d6000fd5b505050506040513d601f19601f82011682018060405250810190610cba919061286e565b50838573ffffffffffffffffffffffffffffffffffffffff168773ffffffffffffffffffffffffffffffffffffffff167fcec678d4f2fb7155a83000124e072e5a18942004291c48454592eec8233bdac160405160405180910390a4505050505050565b600030848484604051602001610d37949392919061289b565b6040516020818303038152906040528051906020012090509392505050565b600860003373ffffffffffffffffffffffffffffffffffffffff1673ffffffffffffffffffffffffffffffffffffffff16815260200190815260200160002060009054906101000a900460ff1680610dfb5750600660009054906101000a900473ffffffffffffffffffffffffffffffffffffffff1673ffffffffffffffffffffffffffffffffffffffff163373ffffffffffffffffffffffffffffffffffffffff16145b610e3a576040517f08c379a0000000000000000000000000000000000000000000000000000000008152600401610e3190612416565b60405180910390fd5b8173ffffffffffffffffffffffffffffffffffffffff166323b872dd3330846040518463ffffffff1660e01b8152600401610e77939291906128e9565b6020604051808303816000875af1158015610e96573d6000803e3d6000fd5b505050506040513d601f19601f82011682018060405250810190610eba919061286e565b5060008273ffffffffffffffffffffffffffffffffffffffff166370a08231306040518263ffffffff1660e01b8152600401610ef69190611c41565b602060405180830381865afa158015610f13573d6000803e3d6000fd5b505050506040513d601f19601f82011682018060405250810190610f379190612780565b9050818373ffffffffffffffffffffffffffffffffffffffff163373ffffffffffffffffffffffffffffffffffffffff167f74a67718db903adcd43217eab12c9077379241bc13029906419bd353f0aa12ed84604051610f97919061239e565b60405180910390a4505050565b600860003373ffffffffffffffffffffffffffffffffffffffff1673ffffffffffffffffffffffffffffffffffffffff16815260200190815260200160002060009054906101000a900460ff16806110495750600660009054906101000a900473ffffffffffffffffffffffffffffffffffffffff1673ffffffffffffffffffffffffffffffffffffffff163373ffffffffffffffffffffffffffffffffffffffff16145b611088576040517f08c379a000000000000000000000000000000000000000000000000000000000815260040161107f90612416565b60405180910390fd5b8173ffffffffffffffffffffffffffffffffffffffff166342842e0e3330846040518463ffffffff1660e01b81526004016110c5939291906128e9565b600060405180830381600087803b1580156110df57600080fd5b505af11580156110f3573d6000803e3d6000fd5b5050505060008273ffffffffffffffffffffffffffffffffffffffff166370a08231306040518263ffffffff1660e01b81526004016111329190611c41565b602060405180830381865afa15801561114f573d6000803e3d6000fd5b505050506040513d601f19601f820116820180604052508101906111739190612780565b9050818373ffffffffffffffffffffffffffffffffffffffff163373ffffffffffffffffffffffffffffffffffffffff167f724414d5e450a09b21fe7c26f56b1ceb1b2b59eaa91ca885cbf8dc618c4e0384846040516111d3919061239e565b60405180910390a4505050565b6111e8611b67565b6002600480602002604051908101604052809291908260048015611257576020028201915b8160009054906101000a900473ffffffffffffffffffffffffffffffffffffffff1673ffffffffffffffffffffffffffffffffffffffff168152602001906001019080831161120d575b5050505050905090565b60076020528060005260406000206000915054906101000a900460ff1681565b60015481565b60008173ffffffffffffffffffffffffffffffffffffffff166370a08231306040518263ffffffff1660e01b81526004016112c29190611c41565b602060405180830381865afa1580156112df573d6000803e3d6000fd5b505050506040513d601f19601f820116820180604052508101906113039190612780565b9050919050565b60008173ffffffffffffffffffffffffffffffffffffffff166370a08231306040518263ffffffff1660e01b81526004016113459190611c41565b602060405180830381865afa158015611362573d6000803e3d6000fd5b505050506040513d601f19601f820116820180604052508101906113869190612780565b9050919050565b600860003373ffffffffffffffffffffffffffffffffffffffff1673ffffffffffffffffffffffffffffffffffffffff16815260200190815260200160002060009054906101000a900460ff16806114325750600660009054906101000a900473ffffffffffffffffffffffffffffffffffffffff1673ffffffffffffffffffffffffffffffffffffffff163373ffffffffffffffffffffffffffffffffffffffff16145b611471576040517f08c379a000000000000000000000000000000000000000000000000000000000815260040161146890612416565b60405180910390fd5b3073ffffffffffffffffffffffffffffffffffffffff168473ffffffffffffffffffffffffffffffffffffffff16636352211e846040518263ffffffff1660e01b81526004016114c1919061239e565b602060405180830381865afa1580156114de573d6000803e3d6000fd5b505050506040513d601f19601f820116820180604052508101906115029190612935565b73ffffffffffffffffffffffffffffffffffffffff1614611558576040517f08c379a000000000000000000000000000000000000000000000000000000000815260040161154f906129ae565b60405180910390fd5b6001600081548092919061156b906124d1565b919050555060006001549050600061158586868685610831565b90506007600082815260200190815260200160002060009054906101000a900460ff16156115e8576040517f08c379a00000000000000000000000000000000000000000000000000000000081526004016115df90612565565b60405180910390fd5b6115f28382611786565b611631576040517f08c379a0000000000000000000000000000000000000000000000000000000008152600401611628906125d1565b60405180910390fd5b60016007600083815260200190815260200160002060006101000a81548160ff0219169083151502179055508573ffffffffffffffffffffffffffffffffffffffff166342842e0e3087876040518463ffffffff1660e01b815260040161169a939291906128e9565b600060405180830381600087803b1580156116b457600080fd5b505af11580156116c8573d6000803e3d6000fd5b50505050838573ffffffffffffffffffffffffffffffffffffffff168773ffffffffffffffffffffffffffffffffffffffff167f2d205f31f84d6676f72a849043bffcc33c86a597826eb9bf046c28e6b9ced03060405160405180910390a4505050505050565b600047905090565b60026000540361177c576040517f08c379a000000000000000000000000000000000000000000000000000000000815260040161177390612a1a565b60405180910390fd5b6002600081905550565b60008061179283611877565b905060005b84518110156118605760006117cf8683815181106117b8576117b7612a3a565b5b6020026020010151846118a790919063ffffffff16565b90506000600283600481106117e7576117e6612a3a565b5b0160009054906101000a900473ffffffffffffffffffffffffffffffffffffffff1673ffffffffffffffffffffffffffffffffffffffff168273ffffffffffffffffffffffffffffffffffffffff161490508061184b576000945050505050611867565b50508080611858906124d1565b915050611797565b5060019150505b92915050565b6001600081905550565b60008160405160200161188a9190612ae1565b604051602081830303815290604052805190602001209050919050565b60008060006118b685856118ce565b915091506118c38161191f565b819250505092915050565b600080604183510361190f5760008060006020860151925060408601519150606086015160001a905061190387828585611a85565b94509450505050611918565b60006002915091505b9250929050565b6000600481111561193357611932612b07565b5b81600481111561194657611945612b07565b5b0315611a8257600160048111156119605761195f612b07565b5b81600481111561197357611972612b07565b5b036119b3576040517f08c379a00000000000000000000000000000000000000000000000000000000081526004016119aa90612b82565b60405180910390fd5b600260048111156119c7576119c6612b07565b5b8160048111156119da576119d9612b07565b5b03611a1a576040517f08c379a0000000000000000000000000000000000000000000000000000000008152600401611a1190612bee565b60405180910390fd5b60036004811115611a2e57611a2d612b07565b5b816004811115611a4157611a40612b07565b5b03611a81576040517f08c379a0000000000000000000000000000000000000000000000000000000008152600401611a7890612c80565b60405180910390fd5b5b50565b6000807f7fffffffffffffffffffffffffffffff5d576e7357a4501ddfe92f46681b20a08360001c1115611ac0576000600391509150611b5e565b600060018787878760405160008152602001604052604051611ae59493929190612cbc565b6020604051602081039080840390855afa158015611b07573d6000803e3d6000fd5b505050602060405103519050600073ffffffffffffffffffffffffffffffffffffffff168173ffffffffffffffffffffffffffffffffffffffff1603611b5557600060019250925050611b5e565b80600092509250505b94509492505050565b6040518060800160405280600490602082028036833780820191505090505090565b6000604051905090565b600080fd5b600080fd5b6000819050919050565b611bb081611b9d565b8114611bbb57600080fd5b50565b600081359050611bcd81611ba7565b92915050565b600060208284031215611be957611be8611b93565b5b6000611bf784828501611bbe565b91505092915050565b600073ffffffffffffffffffffffffffffffffffffffff82169050919050565b6000611c2b82611c00565b9050919050565b611c3b81611c20565b82525050565b6000602082019050611c566000830184611c32565b92915050565b611c6581611c20565b8114611c7057600080fd5b50565b600081359050611c8281611c5c565b92915050565b600080fd5b600080fd5b600080fd5b60008083601f840112611cad57611cac611c88565b5b8235905067ffffffffffffffff811115611cca57611cc9611c8d565b5b602083019150836001820283011115611ce657611ce5611c92565b5b9250929050565b600080600080600060808688031215611d0957611d08611b93565b5b6000611d1788828901611c73565b9550506020611d2888828901611c73565b9450506040611d3988828901611bbe565b935050606086013567ffffffffffffffff811115611d5a57611d59611b98565b5b611d6688828901611c97565b92509250509295509295909350565b60007fffffffff0000000000000000000000000000000000000000000000000000000082169050919050565b611daa81611d75565b82525050565b6000602082019050611dc56000830184611da1565b92915050565b600060208284031215611de157611de0611b93565b5b6000611def84828501611c73565b91505092915050565b60008115159050919050565b611e0d81611df8565b82525050565b6000602082019050611e286000830184611e04565b92915050565b6000601f19601f8301169050919050565b7f4e487b7100000000000000000000000000000000000000000000000000000000600052604160045260246000fd5b611e7782611e2e565b810181811067ffffffffffffffff82111715611e9657611e95611e3f565b5b80604052505050565b6000611ea9611b89565b9050611eb58282611e6e565b919050565b600067ffffffffffffffff821115611ed557611ed4611e3f565b5b602082029050602081019050919050565b600080fd5b600067ffffffffffffffff821115611f0657611f05611e3f565b5b611f0f82611e2e565b9050602081019050919050565b82818337600083830152505050565b6000611f3e611f3984611eeb565b611e9f565b905082815260208101848484011115611f5a57611f59611ee6565b5b611f65848285611f1c565b509392505050565b600082601f830112611f8257611f81611c88565b5b8135611f92848260208601611f2b565b91505092915050565b6000611fae611fa984611eba565b611e9f565b90508083825260208201905060208402830185811115611fd157611fd0611c92565b5b835b8181101561201857803567ffffffffffffffff811115611ff657611ff5611c88565b5b8086016120038982611f6d565b85526020850194505050602081019050611fd3565b5050509392505050565b600082601f83011261203757612036611c88565b5b8135612047848260208601611f9b565b91505092915050565b60008060006060848603121561206957612068611b93565b5b600061207786828701611c73565b935050602061208886828701611bbe565b925050604084013567ffffffffffffffff8111156120a9576120a8611b98565b5b6120b586828701612022565b9150509250925092565b600080600080608085870312156120d9576120d8611b93565b5b60006120e787828801611c73565b94505060206120f887828801611c73565b935050604061210987828801611bbe565b925050606061211a87828801611bbe565b91505092959194509250565b6000819050919050565b61213981612126565b82525050565b60006020820190506121546000830184612130565b92915050565b6000806000806080858703121561217457612173611b93565b5b600061218287828801611c73565b945050602061219387828801611c73565b93505060406121a487828801611bbe565b925050606085013567ffffffffffffffff8111156121c5576121c4611b98565b5b6121d187828801612022565b91505092959194509250565b6000806000606084860312156121f6576121f5611b93565b5b600061220486828701611c73565b935050602061221586828701611bbe565b925050604061222686828701611bbe565b9150509250925092565b6000806040838503121561224757612246611b93565b5b600061225585828601611c73565b925050602061226685828601611bbe565b9150509250929050565b600060049050919050565b600081905092915050565b6000819050919050565b61229981611c20565b82525050565b60006122ab8383612290565b60208301905092915050565b6000602082019050919050565b6122cd81612270565b6122d7818461227b565b92506122e282612286565b8060005b838110156123135781516122fa878261229f565b9650612305836122b7565b9250506001810190506122e6565b505050505050565b600060808201905061233060008301846122c4565b92915050565b61233f81612126565b811461234a57600080fd5b50565b60008135905061235c81612336565b92915050565b60006020828403121561237857612377611b93565b5b60006123868482850161234d565b91505092915050565b61239881611b9d565b82525050565b60006020820190506123b3600083018461238f565b92915050565b600082825260208201905092915050565b7f6e6f74206f776e65720000000000000000000000000000000000000000000000600082015250565b60006124006009836123b9565b915061240b826123ca565b602082019050919050565b6000602082019050818103600083015261242f816123f3565b9050919050565b7f45746865722062616c616e636520746f6f206c6f770000000000000000000000600082015250565b600061246c6015836123b9565b915061247782612436565b602082019050919050565b6000602082019050818103600083015261249b8161245f565b9050919050565b7f4e487b7100000000000000000000000000000000000000000000000000000000600052601160045260246000fd5b60006124dc82611b9d565b91507fffffffffffffffffffffffffffffffffffffffffffffffffffffffffffffffff820361250e5761250d6124a2565b5b600182019050919050565b7f7478206578656375746564000000000000000000000000000000000000000000600082015250565b600061254f600b836123b9565b915061255a82612519565b602082019050919050565b6000602082019050818103600083015261257e81612542565b9050919050565b7f696e76616c696420736967000000000000000000000000000000000000000000600082015250565b60006125bb600b836123b9565b91506125c682612585565b602082019050919050565b600060208201905081810360008301526125ea816125ae565b9050919050565b600081905092915050565b50565b600061260c6000836125f1565b9150612617826125fc565b600082019050919050565b600061262d826125ff565b9150819050919050565b7f4661696c656420746f2073656e64204574686572000000000000000000000000600082015250565b600061266d6014836123b9565b915061267882612637565b602082019050919050565b6000602082019050818103600083015261269c81612660565b9050919050565b60008160601b9050919050565b60006126bb826126a3565b9050919050565b60006126cd826126b0565b9050919050565b6126e56126e082611c20565b6126c2565b82525050565b6000819050919050565b61270661270182611b9d565b6126eb565b82525050565b600061271882886126d4565b60148201915061272882876126d4565b60148201915061273882866126d4565b60148201915061274882856126f5565b60208201915061275882846126f5565b6020820191508190509695505050505050565b60008151905061277a81611ba7565b92915050565b60006020828403121561279657612795611b93565b5b60006127a48482850161276b565b91505092915050565b7f546f6b656e2062616c616e636520746f6f206c6f770000000000000000000000600082015250565b60006127e36015836123b9565b91506127ee826127ad565b602082019050919050565b60006020820190508181036000830152612812816127d6565b9050919050565b600060408201905061282e6000830185611c32565b61283b602083018461238f565b9392505050565b61284b81611df8565b811461285657600080fd5b50565b60008151905061286881612842565b92915050565b60006020828403121561288457612883611b93565b5b600061289284828501612859565b91505092915050565b60006128a782876126d4565b6014820191506128b782866126d4565b6014820191506128c782856126f5565b6020820191506128d782846126f5565b60208201915081905095945050505050565b60006060820190506128fe6000830186611c32565b61290b6020830185611c32565b612918604083018461238f565b949350505050565b60008151905061292f81611c5c565b92915050565b60006020828403121561294b5761294a611b93565b5b600061295984828501612920565b91505092915050565b7f436f6e747261637420646f6573206e6f74206f776e20746f6b656e0000000000600082015250565b6000612998601b836123b9565b91506129a382612962565b602082019050919050565b600060208201905081810360008301526129c78161298b565b9050919050565b7f5265656e7472616e637947756172643a207265656e7472616e742063616c6c00600082015250565b6000612a04601f836123b9565b9150612a0f826129ce565b602082019050919050565b60006020820190508181036000830152612a33816129f7565b9050919050565b7f4e487b7100000000000000000000000000000000000000000000000000000000600052603260045260246000fd5b600081905092915050565b7f19457468657265756d205369676e6564204d6573736167653a0a333200000000600082015250565b6000612aaa601c83612a69565b9150612ab582612a74565b601c82019050919050565b6000819050919050565b612adb612ad682612126565b612ac0565b82525050565b6000612aec82612a9d565b9150612af88284612aca565b60208201915081905092915050565b7f4e487b7100000000000000000000000000000000000000000000000000000000600052602160045260246000fd5b7f45434453413a20696e76616c6964207369676e61747572650000000000000000600082015250565b6000612b6c6018836123b9565b9150612b7782612b36565b602082019050919050565b60006020820190508181036000830152612b9b81612b5f565b9050919050565b7f45434453413a20696e76616c6964207369676e6174757265206c656e67746800600082015250565b6000612bd8601f836123b9565b9150612be382612ba2565b602082019050919050565b60006020820190508181036000830152612c0781612bcb565b9050919050565b7f45434453413a20696e76616c6964207369676e6174757265202773272076616c60008201527f7565000000000000000000000000000000000000000000000000000000000000602082015250565b6000612c6a6022836123b9565b9150612c7582612c0e565b604082019050919050565b60006020820190508181036000830152612c9981612c5d565b9050919050565b600060ff82169050919050565b612cb681612ca0565b82525050565b6000608082019050612cd16000830187612130565b612cde6020830186612cad565b612ceb6040830185612130565b612cf86060830184612130565b9594505050505056fea2646970667358221220de52efc8468517236e7b520b04d5da354239a5e4daf7b2e91e6114ac43fcfe3f64736f6c63430008110033",
  "linkReferences": {},
  "deployedLinkReferences": {}
}