{
  "_format": "hh-sol-artifact-1",
  "contractName": "MultiSigDepositLogic",
  "sourceName": "contracts/MultiSigWallet2.sol",
  "abi": [
    {
      "anonymous": false,
      "inputs": [
        {
          "indexed": true,
          "internalType": "address",
          "name": "sender",
          "type": "address"
        },
        {
          "indexed": true,
          "internalType": "address",
          "name": "token",
          "type": "address"
        },
        {
          "indexed": true,
          "internalType": "uint256",
          "name": "amount",
          "type": "uint256"
        },
        {
          "indexed": false,
          "internalType": "uint256",
          "name": "ContractBalance",
          "type": "uint256"
        }
      ],
      "name": "ERC20Deposited",
      "type": "event"
    },
    {
      "anonymous": false,
      "inputs": [
        {
          "indexed": true,
          "internalType": "address",
          "name": "tokenAddress",
          "type": "address"
        },
        {
          "indexed": true,
          "internalType": "address",
          "name": "to",
          "type": "address"
        },
        {
          "indexed": true,
          "internalType": "uint256",
          "name": "amount",
          "type": "uint256"
        }
      ],
      "name": "ERC20TransactionExecuted",
      "type": "event"
    },
    {
      "anonymous": false,
      "inputs": [
        {
          "indexed": true,
          "internalType": "address",
          "name": "sender",
          "type": "address"
        },
        {
          "indexed": true,
          "internalType": "uint256",
          "name": "amount",
          "type": "uint256"
        },
        {
          "indexed": true,
          "internalType": "uint256",
          "name": "ContractBalance",
          "type": "uint256"
        }
      ],
      "name": "EthDeposited",
      "type": "event"
    },
    {
      "anonymous": false,
      "inputs": [
        {
          "indexed": true,
          "internalType": "address",
          "name": "to",
          "type": "address"
        },
        {
          "indexed": true,
          "internalType": "uint256",
          "name": "amount",
          "type": "uint256"
        }
      ],
      "name": "EthTransactionExecuted",
      "type": "event"
    },
    {
      "anonymous": false,
      "inputs": [
        {
          "indexed": true,
          "internalType": "address",
          "name": "sender",
          "type": "address"
        },
        {
          "indexed": true,
          "internalType": "address",
          "name": "nftContract",
          "type": "address"
        },
        {
          "indexed": true,
          "internalType": "uint256",
          "name": "tokenId",
          "type": "uint256"
        },
        {
          "indexed": false,
          "internalType": "uint256",
          "name": "ContractBalance",
          "type": "uint256"
        }
      ],
      "name": "NFTDeposited",
      "type": "event"
    },
    {
      "anonymous": false,
      "inputs": [
        {
          "indexed": true,
          "internalType": "address",
          "name": "tokenAddress",
          "type": "address"
        },
        {
          "indexed": true,
          "internalType": "address",
          "name": "to",
          "type": "address"
        },
        {
          "indexed": true,
          "internalType": "uint256",
          "name": "tokenId",
          "type": "uint256"
        }
      ],
      "name": "NFTTransactionExecuted",
      "type": "event"
    },
    {
      "inputs": [
        {
          "internalType": "address",
          "name": "_tokenAddress",
          "type": "address"
        },
        {
          "internalType": "uint256",
          "name": "_amount",
          "type": "uint256"
        }
      ],
      "name": "depositERC20",
      "outputs": [],
      "stateMutability": "nonpayable",
      "type": "function"
    },
    {
      "inputs": [],
      "name": "depositEth",
      "outputs": [],
      "stateMutability": "payable",
      "type": "function"
    },
    {
      "inputs": [
        {
          "internalType": "address",
          "name": "_tokenAddress",
          "type": "address"
        },
        {
          "internalType": "uint256",
          "name": "_tokenId",
          "type": "uint256"
        }
      ],
      "name": "depositNFT",
      "outputs": [],
      "stateMutability": "nonpayable",
      "type": "function"
    },
    {
      "inputs": [
        {
          "internalType": "bytes32",
          "name": "",
          "type": "bytes32"
        }
      ],
      "name": "executed",
      "outputs": [
        {
          "internalType": "bool",
          "name": "",
          "type": "bool"
        }
      ],
      "stateMutability": "view",
      "type": "function"
    },
    {
      "inputs": [
        {
          "internalType": "address",
          "name": "_to",
          "type": "address"
        },
        {
          "internalType": "uint256",
          "name": "_amount",
          "type": "uint256"
        },
        {
          "internalType": "uint256",
          "name": "_nonce",
          "type": "uint256"
        }
      ],
      "name": "getEthTransferHash",
      "outputs": [
        {
          "internalType": "bytes32",
          "name": "",
          "type": "bytes32"
        }
      ],
      "stateMutability": "view",
      "type": "function"
    },
    {
      "inputs": [
        {
          "internalType": "address",
          "name": "_tokenContract",
          "type": "address"
        },
        {
          "internalType": "address",
          "name": "_to",
          "type": "address"
        },
        {
          "internalType": "uint256",
          "name": "_amountOrTokenId",
          "type": "uint256"
        },
        {
          "internalType": "uint256",
          "name": "_nonce",
          "type": "uint256"
        }
      ],
      "name": "getTokenTransferHash",
      "outputs": [
        {
          "internalType": "bytes32",
          "name": "",
          "type": "bytes32"
        }
      ],
      "stateMutability": "view",
      "type": "function"
    },
    {
      "inputs": [
        {
          "internalType": "address",
          "name": "",
          "type": "address"
        }
      ],
      "name": "isOwner",
      "outputs": [
        {
          "internalType": "bool",
          "name": "",
          "type": "bool"
        }
      ],
      "stateMutability": "view",
      "type": "function"
    },
    {
      "inputs": [],
      "name": "nonce",
      "outputs": [
        {
          "internalType": "uint256",
          "name": "",
          "type": "uint256"
        }
      ],
      "stateMutability": "view",
      "type": "function"
    },
    {
      "inputs": [
        {
          "internalType": "address",
          "name": "operator",
          "type": "address"
        },
        {
          "internalType": "address",
          "name": "from",
          "type": "address"
        },
        {
          "internalType": "uint256",
          "name": "tokenId",
          "type": "uint256"
        },
        {
          "internalType": "bytes",
          "name": "data",
          "type": "bytes"
        }
      ],
      "name": "onERC721Received",
      "outputs": [
        {
          "internalType": "bytes4",
          "name": "",
          "type": "bytes4"
        }
      ],
      "stateMutability": "nonpayable",
      "type": "function"
    },
    {
      "inputs": [
        {
          "internalType": "uint256",
          "name": "",
          "type": "uint256"
        }
      ],
      "name": "owners",
      "outputs": [
        {
          "internalType": "address",
          "name": "",
          "type": "address"
        }
      ],
      "stateMutability": "view",
      "type": "function"
    },
    {
      "inputs": [
        {
          "internalType": "address",
          "name": "_tokenAddress",
          "type": "address"
        },
        {
          "internalType": "address",
          "name": "_to",
          "type": "address"
        },
        {
          "internalType": "uint256",
          "name": "_amount",
          "type": "uint256"
        },
        {
          "internalType": "bytes[]",
          "name": "_sigs",
          "type": "bytes[]"
        }
      ],
      "name": "transferErc20",
      "outputs": [],
      "stateMutability": "nonpayable",
      "type": "function"
    },
    {
      "inputs": [
        {
          "internalType": "address",
          "name": "_to",
          "type": "address"
        },
        {
          "internalType": "uint256",
          "name": "_amount",
          "type": "uint256"
        },
        {
          "internalType": "bytes[]",
          "name": "_sigs",
          "type": "bytes[]"
        }
      ],
      "name": "transferEth",
      "outputs": [],
      "stateMutability": "nonpayable",
      "type": "function"
    },
    {
      "inputs": [
        {
          "internalType": "address",
          "name": "_tokenAddress",
          "type": "address"
        },
        {
          "internalType": "address",
          "name": "_to",
          "type": "address"
        },
        {
          "internalType": "uint256",
          "name": "_tokenId",
          "type": "uint256"
        },
        {
          "internalType": "bytes[]",
          "name": "_sigs",
          "type": "bytes[]"
        }
      ],
      "name": "transferNFT",
      "outputs": [],
      "stateMutability": "nonpayable",
      "type": "function"
    },
    {
      "stateMutability": "payable",
      "type": "receive"
    }
  ],
  "bytecode": "0x608060405234801561001057600080fd5b5060016000819055506129b4806100286000396000f3fe6080604052600436106100c65760003560e01c8063765d7bb81161007f5780639b5b9b18116100595780639b5b9b18146102cd578063a9fcfb33146102f6578063affed0e014610333578063d47ed31b1461035e57610112565b8063765d7bb81461023e5780638b4e87d11461026757806397feb926146102a457610112565b8063025e7c2714610117578063150b7a02146101545780632f54bf6e14610191578063343ebd11146101ce5780633e44457a146101f7578063439370b11461023457610112565b366101125747343373ffffffffffffffffffffffffffffffffffffffff167f3f7db3ccdc06492eb9fcca5fe34fcee7f7ddcca331e5053cb3534067b9a5323260405160405180910390a4005b600080fd5b34801561012357600080fd5b5061013e60048036038101906101399190611916565b610387565b60405161014b9190611984565b60405180910390f35b34801561016057600080fd5b5061017b60048036038101906101769190611a30565b6103bd565b6040516101889190611af3565b60405180910390f35b34801561019d57600080fd5b506101b860048036038101906101b39190611b0e565b6103d2565b6040516101c59190611b56565b60405180910390f35b3480156101da57600080fd5b506101f560048036038101906101f09190611d93565b6103f2565b005b34801561020357600080fd5b5061021e60048036038101906102199190611e02565b610725565b60405161022b9190611e82565b60405180910390f35b61023c610760565b005b34801561024a57600080fd5b5061026560048036038101906102609190611e9d565b61088b565b005b34801561027357600080fd5b5061028e60048036038101906102899190611f20565b610c12565b60405161029b9190611e82565b60405180910390f35b3480156102b057600080fd5b506102cb60048036038101906102c69190611f73565b610c4a565b005b3480156102d957600080fd5b506102f460048036038101906102ef9190611f73565b610e98565b005b34801561030257600080fd5b5061031d60048036038101906103189190611fdf565b6110d4565b60405161032a9190611b56565b60405180910390f35b34801561033f57600080fd5b506103486110f4565b604051610355919061201b565b60405180910390f35b34801561036a57600080fd5b5061038560048036038101906103809190611e9d565b6110fa565b005b6002816004811061039757600080fd5b016000915054906101000a900473ffffffffffffffffffffffffffffffffffffffff1681565b600063150b7a0260e01b905095945050505050565b60086020528060005260406000206000915054906101000a900460ff1681565b600860003373ffffffffffffffffffffffffffffffffffffffff1673ffffffffffffffffffffffffffffffffffffffff16815260200190815260200160002060009054906101000a900460ff16806104975750600660009054906101000a900473ffffffffffffffffffffffffffffffffffffffff1673ffffffffffffffffffffffffffffffffffffffff163373ffffffffffffffffffffffffffffffffffffffff16145b6104d6576040517f08c379a00000000000000000000000000000000000000000000000000000000081526004016104cd90612093565b60405180910390fd5b6104de61149c565b81471015610521576040517f08c379a0000000000000000000000000000000000000000000000000000000008152600401610518906120ff565b60405180910390fd5b600160008154809291906105349061214e565b919050555060006001549050600061054d858584610c12565b90506007600082815260200190815260200160002060009054906101000a900460ff16156105b0576040517f08c379a00000000000000000000000000000000000000000000000000000000081526004016105a7906121e2565b60405180910390fd5b6105ba83826114eb565b6105f9576040517f08c379a00000000000000000000000000000000000000000000000000000000081526004016105f09061224e565b60405180910390fd5b60016007600083815260200190815260200160002060006101000a81548160ff02191690831515021790555060008573ffffffffffffffffffffffffffffffffffffffff168560405161064b9061229f565b60006040518083038185875af1925050503d8060008114610688576040519150601f19603f3d011682016040523d82523d6000602084013e61068d565b606091505b50509050806106d1576040517f08c379a00000000000000000000000000000000000000000000000000000000081526004016106c890612300565b60405180910390fd5b848673ffffffffffffffffffffffffffffffffffffffff167f78aa3d4f2910e65adebfe112cbc8865126f050ecb465ff2c3caf6306d6fca4c160405160405180910390a35050506107206115d2565b505050565b60003084868585604051602001610740959493929190612389565b604051602081830303815290604052805190602001209050949350505050565b600860003373ffffffffffffffffffffffffffffffffffffffff1673ffffffffffffffffffffffffffffffffffffffff16815260200190815260200160002060009054906101000a900460ff16806108055750600660009054906101000a900473ffffffffffffffffffffffffffffffffffffffff1673ffffffffffffffffffffffffffffffffffffffff163373ffffffffffffffffffffffffffffffffffffffff16145b610844576040517f08c379a000000000000000000000000000000000000000000000000000000000815260040161083b90612093565b60405180910390fd5b47343373ffffffffffffffffffffffffffffffffffffffff167f3f7db3ccdc06492eb9fcca5fe34fcee7f7ddcca331e5053cb3534067b9a5323260405160405180910390a4565b600860003373ffffffffffffffffffffffffffffffffffffffff1673ffffffffffffffffffffffffffffffffffffffff16815260200190815260200160002060009054906101000a900460ff16806109305750600660009054906101000a900473ffffffffffffffffffffffffffffffffffffffff1673ffffffffffffffffffffffffffffffffffffffff163373ffffffffffffffffffffffffffffffffffffffff16145b61096f576040517f08c379a000000000000000000000000000000000000000000000000000000000815260040161096690612093565b60405180910390fd5b818473ffffffffffffffffffffffffffffffffffffffff166370a08231306040518263ffffffff1660e01b81526004016109a99190611984565b602060405180830381865afa1580156109c6573d6000803e3d6000fd5b505050506040513d601f19601f820116820180604052508101906109ea91906123fd565b1015610a2b576040517f08c379a0000000000000000000000000000000000000000000000000000000008152600401610a2290612476565b60405180910390fd5b60016000815480929190610a3e9061214e565b9190505550600060015490506000610a5886868685610725565b90506007600082815260200190815260200160002060009054906101000a900460ff1615610abb576040517f08c379a0000000000000000000000000000000000000000000000000000000008152600401610ab2906121e2565b60405180910390fd5b610ac583826114eb565b610b04576040517f08c379a0000000000000000000000000000000000000000000000000000000008152600401610afb9061224e565b60405180910390fd5b60016007600083815260200190815260200160002060006101000a81548160ff0219169083151502179055508573ffffffffffffffffffffffffffffffffffffffff1663a9059cbb86866040518363ffffffff1660e01b8152600401610b6b929190612496565b6020604051808303816000875af1158015610b8a573d6000803e3d6000fd5b505050506040513d601f19601f82011682018060405250810190610bae91906124eb565b50838573ffffffffffffffffffffffffffffffffffffffff168773ffffffffffffffffffffffffffffffffffffffff167fcec678d4f2fb7155a83000124e072e5a18942004291c48454592eec8233bdac160405160405180910390a4505050505050565b600030848484604051602001610c2b9493929190612518565b6040516020818303038152906040528051906020012090509392505050565b600860003373ffffffffffffffffffffffffffffffffffffffff1673ffffffffffffffffffffffffffffffffffffffff16815260200190815260200160002060009054906101000a900460ff1680610cef5750600660009054906101000a900473ffffffffffffffffffffffffffffffffffffffff1673ffffffffffffffffffffffffffffffffffffffff163373ffffffffffffffffffffffffffffffffffffffff16145b610d2e576040517f08c379a0000000000000000000000000000000000000000000000000000000008152600401610d2590612093565b60405180910390fd5b8173ffffffffffffffffffffffffffffffffffffffff166323b872dd3330846040518463ffffffff1660e01b8152600401610d6b93929190612566565b6020604051808303816000875af1158015610d8a573d6000803e3d6000fd5b505050506040513d601f19601f82011682018060405250810190610dae91906124eb565b5060008273ffffffffffffffffffffffffffffffffffffffff166370a08231306040518263ffffffff1660e01b8152600401610dea9190611984565b602060405180830381865afa158015610e07573d6000803e3d6000fd5b505050506040513d601f19601f82011682018060405250810190610e2b91906123fd565b9050818373ffffffffffffffffffffffffffffffffffffffff163373ffffffffffffffffffffffffffffffffffffffff167f74a67718db903adcd43217eab12c9077379241bc13029906419bd353f0aa12ed84604051610e8b919061201b565b60405180910390a4505050565b600860003373ffffffffffffffffffffffffffffffffffffffff1673ffffffffffffffffffffffffffffffffffffffff16815260200190815260200160002060009054906101000a900460ff1680610f3d5750600660009054906101000a900473ffffffffffffffffffffffffffffffffffffffff1673ffffffffffffffffffffffffffffffffffffffff163373ffffffffffffffffffffffffffffffffffffffff16145b610f7c576040517f08c379a0000000000000000000000000000000000000000000000000000000008152600401610f7390612093565b60405180910390fd5b8173ffffffffffffffffffffffffffffffffffffffff166342842e0e3330846040518463ffffffff1660e01b8152600401610fb993929190612566565b600060405180830381600087803b158015610fd357600080fd5b505af1158015610fe7573d6000803e3d6000fd5b5050505060008273ffffffffffffffffffffffffffffffffffffffff166370a08231306040518263ffffffff1660e01b81526004016110269190611984565b602060405180830381865afa158015611043573d6000803e3d6000fd5b505050506040513d601f19601f8201168201806040525081019061106791906123fd565b9050818373ffffffffffffffffffffffffffffffffffffffff163373ffffffffffffffffffffffffffffffffffffffff167f724414d5e450a09b21fe7c26f56b1ceb1b2b59eaa91ca885cbf8dc618c4e0384846040516110c7919061201b565b60405180910390a4505050565b60076020528060005260406000206000915054906101000a900460ff1681565b60015481565b600860003373ffffffffffffffffffffffffffffffffffffffff1673ffffffffffffffffffffffffffffffffffffffff16815260200190815260200160002060009054906101000a900460ff168061119f5750600660009054906101000a900473ffffffffffffffffffffffffffffffffffffffff1673ffffffffffffffffffffffffffffffffffffffff163373ffffffffffffffffffffffffffffffffffffffff16145b6111de576040517f08c379a00000000000000000000000000000000000000000000000000000000081526004016111d590612093565b60405180910390fd5b3073ffffffffffffffffffffffffffffffffffffffff168473ffffffffffffffffffffffffffffffffffffffff16636352211e846040518263ffffffff1660e01b815260040161122e919061201b565b602060405180830381865afa15801561124b573d6000803e3d6000fd5b505050506040513d601f19601f8201168201806040525081019061126f91906125b2565b73ffffffffffffffffffffffffffffffffffffffff16146112c5576040517f08c379a00000000000000000000000000000000000000000000000000000000081526004016112bc9061262b565b60405180910390fd5b600160008154809291906112d89061214e565b91905055506000600154905060006112f286868685610725565b90506007600082815260200190815260200160002060009054906101000a900460ff1615611355576040517f08c379a000000000000000000000000000000000000000000000000000000000815260040161134c906121e2565b60405180910390fd5b61135f83826114eb565b61139e576040517f08c379a00000000000000000000000000000000000000000000000000000000081526004016113959061224e565b60405180910390fd5b60016007600083815260200190815260200160002060006101000a81548160ff0219169083151502179055508573ffffffffffffffffffffffffffffffffffffffff166342842e0e3087876040518463ffffffff1660e01b815260040161140793929190612566565b600060405180830381600087803b15801561142157600080fd5b505af1158015611435573d6000803e3d6000fd5b50505050838573ffffffffffffffffffffffffffffffffffffffff168773ffffffffffffffffffffffffffffffffffffffff167f2d205f31f84d6676f72a849043bffcc33c86a597826eb9bf046c28e6b9ced03060405160405180910390a4505050505050565b6002600054036114e1576040517f08c379a00000000000000000000000000000000000000000000000000000000081526004016114d890612697565b60405180910390fd5b6002600081905550565b6000806114f7836115dc565b905060005b84518110156115c557600061153486838151811061151d5761151c6126b7565b5b60200260200101518461160c90919063ffffffff16565b905060006002836004811061154c5761154b6126b7565b5b0160009054906101000a900473ffffffffffffffffffffffffffffffffffffffff1673ffffffffffffffffffffffffffffffffffffffff168273ffffffffffffffffffffffffffffffffffffffff16149050806115b05760009450505050506115cc565b505080806115bd9061214e565b9150506114fc565b5060019150505b92915050565b6001600081905550565b6000816040516020016115ef919061275e565b604051602081830303815290604052805190602001209050919050565b600080600061161b8585611633565b9150915061162881611684565b819250505092915050565b60008060418351036116745760008060006020860151925060408601519150606086015160001a9050611668878285856117ea565b9450945050505061167d565b60006002915091505b9250929050565b6000600481111561169857611697612784565b5b8160048111156116ab576116aa612784565b5b03156117e757600160048111156116c5576116c4612784565b5b8160048111156116d8576116d7612784565b5b03611718576040517f08c379a000000000000000000000000000000000000000000000000000000000815260040161170f906127ff565b60405180910390fd5b6002600481111561172c5761172b612784565b5b81600481111561173f5761173e612784565b5b0361177f576040517f08c379a00000000000000000000000000000000000000000000000000000000081526004016117769061286b565b60405180910390fd5b6003600481111561179357611792612784565b5b8160048111156117a6576117a5612784565b5b036117e6576040517f08c379a00000000000000000000000000000000000000000000000000000000081526004016117dd906128fd565b60405180910390fd5b5b50565b6000807f7fffffffffffffffffffffffffffffff5d576e7357a4501ddfe92f46681b20a08360001c11156118255760006003915091506118c3565b60006001878787876040516000815260200160405260405161184a9493929190612939565b6020604051602081039080840390855afa15801561186c573d6000803e3d6000fd5b505050602060405103519050600073ffffffffffffffffffffffffffffffffffffffff168173ffffffffffffffffffffffffffffffffffffffff16036118ba576000600192509250506118c3565b80600092509250505b94509492505050565b6000604051905090565b600080fd5b600080fd5b6000819050919050565b6118f3816118e0565b81146118fe57600080fd5b50565b600081359050611910816118ea565b92915050565b60006020828403121561192c5761192b6118d6565b5b600061193a84828501611901565b91505092915050565b600073ffffffffffffffffffffffffffffffffffffffff82169050919050565b600061196e82611943565b9050919050565b61197e81611963565b82525050565b60006020820190506119996000830184611975565b92915050565b6119a881611963565b81146119b357600080fd5b50565b6000813590506119c58161199f565b92915050565b600080fd5b600080fd5b600080fd5b60008083601f8401126119f0576119ef6119cb565b5b8235905067ffffffffffffffff811115611a0d57611a0c6119d0565b5b602083019150836001820283011115611a2957611a286119d5565b5b9250929050565b600080600080600060808688031215611a4c57611a4b6118d6565b5b6000611a5a888289016119b6565b9550506020611a6b888289016119b6565b9450506040611a7c88828901611901565b935050606086013567ffffffffffffffff811115611a9d57611a9c6118db565b5b611aa9888289016119da565b92509250509295509295909350565b60007fffffffff0000000000000000000000000000000000000000000000000000000082169050919050565b611aed81611ab8565b82525050565b6000602082019050611b086000830184611ae4565b92915050565b600060208284031215611b2457611b236118d6565b5b6000611b32848285016119b6565b91505092915050565b60008115159050919050565b611b5081611b3b565b82525050565b6000602082019050611b6b6000830184611b47565b92915050565b6000601f19601f8301169050919050565b7f4e487b7100000000000000000000000000000000000000000000000000000000600052604160045260246000fd5b611bba82611b71565b810181811067ffffffffffffffff82111715611bd957611bd8611b82565b5b80604052505050565b6000611bec6118cc565b9050611bf88282611bb1565b919050565b600067ffffffffffffffff821115611c1857611c17611b82565b5b602082029050602081019050919050565b600080fd5b600067ffffffffffffffff821115611c4957611c48611b82565b5b611c5282611b71565b9050602081019050919050565b82818337600083830152505050565b6000611c81611c7c84611c2e565b611be2565b905082815260208101848484011115611c9d57611c9c611c29565b5b611ca8848285611c5f565b509392505050565b600082601f830112611cc557611cc46119cb565b5b8135611cd5848260208601611c6e565b91505092915050565b6000611cf1611cec84611bfd565b611be2565b90508083825260208201905060208402830185811115611d1457611d136119d5565b5b835b81811015611d5b57803567ffffffffffffffff811115611d3957611d386119cb565b5b808601611d468982611cb0565b85526020850194505050602081019050611d16565b5050509392505050565b600082601f830112611d7a57611d796119cb565b5b8135611d8a848260208601611cde565b91505092915050565b600080600060608486031215611dac57611dab6118d6565b5b6000611dba868287016119b6565b9350506020611dcb86828701611901565b925050604084013567ffffffffffffffff811115611dec57611deb6118db565b5b611df886828701611d65565b9150509250925092565b60008060008060808587031215611e1c57611e1b6118d6565b5b6000611e2a878288016119b6565b9450506020611e3b878288016119b6565b9350506040611e4c87828801611901565b9250506060611e5d87828801611901565b91505092959194509250565b6000819050919050565b611e7c81611e69565b82525050565b6000602082019050611e976000830184611e73565b92915050565b60008060008060808587031215611eb757611eb66118d6565b5b6000611ec5878288016119b6565b9450506020611ed6878288016119b6565b9350506040611ee787828801611901565b925050606085013567ffffffffffffffff811115611f0857611f076118db565b5b611f1487828801611d65565b91505092959194509250565b600080600060608486031215611f3957611f386118d6565b5b6000611f47868287016119b6565b9350506020611f5886828701611901565b9250506040611f6986828701611901565b9150509250925092565b60008060408385031215611f8a57611f896118d6565b5b6000611f98858286016119b6565b9250506020611fa985828601611901565b9150509250929050565b611fbc81611e69565b8114611fc757600080fd5b50565b600081359050611fd981611fb3565b92915050565b600060208284031215611ff557611ff46118d6565b5b600061200384828501611fca565b91505092915050565b612015816118e0565b82525050565b6000602082019050612030600083018461200c565b92915050565b600082825260208201905092915050565b7f6e6f74206f776e65720000000000000000000000000000000000000000000000600082015250565b600061207d600983612036565b915061208882612047565b602082019050919050565b600060208201905081810360008301526120ac81612070565b9050919050565b7f45746865722062616c616e636520746f6f206c6f770000000000000000000000600082015250565b60006120e9601583612036565b91506120f4826120b3565b602082019050919050565b60006020820190508181036000830152612118816120dc565b9050919050565b7f4e487b7100000000000000000000000000000000000000000000000000000000600052601160045260246000fd5b6000612159826118e0565b91507fffffffffffffffffffffffffffffffffffffffffffffffffffffffffffffffff820361218b5761218a61211f565b5b600182019050919050565b7f7478206578656375746564000000000000000000000000000000000000000000600082015250565b60006121cc600b83612036565b91506121d782612196565b602082019050919050565b600060208201905081810360008301526121fb816121bf565b9050919050565b7f696e76616c696420736967000000000000000000000000000000000000000000600082015250565b6000612238600b83612036565b915061224382612202565b602082019050919050565b600060208201905081810360008301526122678161222b565b9050919050565b600081905092915050565b50565b600061228960008361226e565b915061229482612279565b600082019050919050565b60006122aa8261227c565b9150819050919050565b7f4661696c656420746f2073656e64204574686572000000000000000000000000600082015250565b60006122ea601483612036565b91506122f5826122b4565b602082019050919050565b60006020820190508181036000830152612319816122dd565b9050919050565b60008160601b9050919050565b600061233882612320565b9050919050565b600061234a8261232d565b9050919050565b61236261235d82611963565b61233f565b82525050565b6000819050919050565b61238361237e826118e0565b612368565b82525050565b60006123958288612351565b6014820191506123a58287612351565b6014820191506123b58286612351565b6014820191506123c58285612372565b6020820191506123d58284612372565b6020820191508190509695505050505050565b6000815190506123f7816118ea565b92915050565b600060208284031215612413576124126118d6565b5b6000612421848285016123e8565b91505092915050565b7f546f6b656e2062616c616e636520746f6f206c6f770000000000000000000000600082015250565b6000612460601583612036565b915061246b8261242a565b602082019050919050565b6000602082019050818103600083015261248f81612453565b9050919050565b60006040820190506124ab6000830185611975565b6124b8602083018461200c565b9392505050565b6124c881611b3b565b81146124d357600080fd5b50565b6000815190506124e5816124bf565b92915050565b600060208284031215612501576125006118d6565b5b600061250f848285016124d6565b91505092915050565b60006125248287612351565b6014820191506125348286612351565b6014820191506125448285612372565b6020820191506125548284612372565b60208201915081905095945050505050565b600060608201905061257b6000830186611975565b6125886020830185611975565b612595604083018461200c565b949350505050565b6000815190506125ac8161199f565b92915050565b6000602082840312156125c8576125c76118d6565b5b60006125d68482850161259d565b91505092915050565b7f436f6e747261637420646f6573206e6f74206f776e20746f6b656e0000000000600082015250565b6000612615601b83612036565b9150612620826125df565b602082019050919050565b6000602082019050818103600083015261264481612608565b9050919050565b7f5265656e7472616e637947756172643a207265656e7472616e742063616c6c00600082015250565b6000612681601f83612036565b915061268c8261264b565b602082019050919050565b600060208201905081810360008301526126b081612674565b9050919050565b7f4e487b7100000000000000000000000000000000000000000000000000000000600052603260045260246000fd5b600081905092915050565b7f19457468657265756d205369676e6564204d6573736167653a0a333200000000600082015250565b6000612727601c836126e6565b9150612732826126f1565b601c82019050919050565b6000819050919050565b61275861275382611e69565b61273d565b82525050565b60006127698261271a565b91506127758284612747565b60208201915081905092915050565b7f4e487b7100000000000000000000000000000000000000000000000000000000600052602160045260246000fd5b7f45434453413a20696e76616c6964207369676e61747572650000000000000000600082015250565b60006127e9601883612036565b91506127f4826127b3565b602082019050919050565b60006020820190508181036000830152612818816127dc565b9050919050565b7f45434453413a20696e76616c6964207369676e6174757265206c656e67746800600082015250565b6000612855601f83612036565b91506128608261281f565b602082019050919050565b6000602082019050818103600083015261288481612848565b9050919050565b7f45434453413a20696e76616c6964207369676e6174757265202773272076616c60008201527f7565000000000000000000000000000000000000000000000000000000000000602082015250565b60006128e7602283612036565b91506128f28261288b565b604082019050919050565b60006020820190508181036000830152612916816128da565b9050919050565b600060ff82169050919050565b6129338161291d565b82525050565b600060808201905061294e6000830187611e73565b61295b602083018661292a565b6129686040830185611e73565b6129756060830184611e73565b9594505050505056fea2646970667358221220c40320afacfdae30f2e59213a8d0d455f7a5daaf094021b41347cd5c60bc210264736f6c63430008110033",
  "linkReferences": {},
  "deployedLinkReferences": {}
}