{
  "_format": "hh-sol-artifact-1",
  "contractName": "MultiSigTransferLogic",
  "sourceName": "contracts/MultiSigWallet2.sol",
  "abi": [
    {
      "anonymous": false,
      "inputs": [
        {
          "indexed": true,
          "internalType": "address",
          "name": "sender",
          "type": "address"
        },
        {
          "indexed": true,
          "internalType": "address",
          "name": "token",
          "type": "address"
        },
        {
          "indexed": true,
          "internalType": "uint256",
          "name": "amount",
          "type": "uint256"
        },
        {
          "indexed": false,
          "internalType": "uint256",
          "name": "ContractBalance",
          "type": "uint256"
        }
      ],
      "name": "ERC20Deposited",
      "type": "event"
    },
    {
      "anonymous": false,
      "inputs": [
        {
          "indexed": true,
          "internalType": "address",
          "name": "tokenAddress",
          "type": "address"
        },
        {
          "indexed": true,
          "internalType": "address",
          "name": "to",
          "type": "address"
        },
        {
          "indexed": true,
          "internalType": "uint256",
          "name": "amount",
          "type": "uint256"
        }
      ],
      "name": "ERC20TransactionExecuted",
      "type": "event"
    },
    {
      "anonymous": false,
      "inputs": [
        {
          "indexed": true,
          "internalType": "address",
          "name": "sender",
          "type": "address"
        },
        {
          "indexed": true,
          "internalType": "uint256",
          "name": "amount",
          "type": "uint256"
        },
        {
          "indexed": true,
          "internalType": "uint256",
          "name": "ContractBalance",
          "type": "uint256"
        }
      ],
      "name": "EthDeposited",
      "type": "event"
    },
    {
      "anonymous": false,
      "inputs": [
        {
          "indexed": true,
          "internalType": "address",
          "name": "to",
          "type": "address"
        },
        {
          "indexed": true,
          "internalType": "uint256",
          "name": "amount",
          "type": "uint256"
        }
      ],
      "name": "EthTransactionExecuted",
      "type": "event"
    },
    {
      "anonymous": false,
      "inputs": [
        {
          "indexed": true,
          "internalType": "address",
          "name": "sender",
          "type": "address"
        },
        {
          "indexed": true,
          "internalType": "address",
          "name": "nftContract",
          "type": "address"
        },
        {
          "indexed": true,
          "internalType": "uint256",
          "name": "tokenId",
          "type": "uint256"
        },
        {
          "indexed": false,
          "internalType": "uint256",
          "name": "ContractBalance",
          "type": "uint256"
        }
      ],
      "name": "NFTDeposited",
      "type": "event"
    },
    {
      "anonymous": false,
      "inputs": [
        {
          "indexed": true,
          "internalType": "address",
          "name": "tokenAddress",
          "type": "address"
        },
        {
          "indexed": true,
          "internalType": "address",
          "name": "to",
          "type": "address"
        },
        {
          "indexed": true,
          "internalType": "uint256",
          "name": "tokenId",
          "type": "uint256"
        }
      ],
      "name": "NFTTransactionExecuted",
      "type": "event"
    },
    {
      "inputs": [
        {
          "internalType": "bytes32",
          "name": "",
          "type": "bytes32"
        }
      ],
      "name": "executed",
      "outputs": [
        {
          "internalType": "bool",
          "name": "",
          "type": "bool"
        }
      ],
      "stateMutability": "view",
      "type": "function"
    },
    {
      "inputs": [
        {
          "internalType": "address",
          "name": "_to",
          "type": "address"
        },
        {
          "internalType": "uint256",
          "name": "_amount",
          "type": "uint256"
        },
        {
          "internalType": "uint256",
          "name": "_nonce",
          "type": "uint256"
        }
      ],
      "name": "getEthTransferHash",
      "outputs": [
        {
          "internalType": "bytes32",
          "name": "",
          "type": "bytes32"
        }
      ],
      "stateMutability": "view",
      "type": "function"
    },
    {
      "inputs": [
        {
          "internalType": "address",
          "name": "_tokenContract",
          "type": "address"
        },
        {
          "internalType": "address",
          "name": "_to",
          "type": "address"
        },
        {
          "internalType": "uint256",
          "name": "_amountOrTokenId",
          "type": "uint256"
        },
        {
          "internalType": "uint256",
          "name": "_nonce",
          "type": "uint256"
        }
      ],
      "name": "getTokenTransferHash",
      "outputs": [
        {
          "internalType": "bytes32",
          "name": "",
          "type": "bytes32"
        }
      ],
      "stateMutability": "view",
      "type": "function"
    },
    {
      "inputs": [
        {
          "internalType": "address",
          "name": "",
          "type": "address"
        }
      ],
      "name": "isOwner",
      "outputs": [
        {
          "internalType": "bool",
          "name": "",
          "type": "bool"
        }
      ],
      "stateMutability": "view",
      "type": "function"
    },
    {
      "inputs": [],
      "name": "nonce",
      "outputs": [
        {
          "internalType": "uint256",
          "name": "",
          "type": "uint256"
        }
      ],
      "stateMutability": "view",
      "type": "function"
    },
    {
      "inputs": [
        {
          "internalType": "uint256",
          "name": "",
          "type": "uint256"
        }
      ],
      "name": "owners",
      "outputs": [
        {
          "internalType": "address",
          "name": "",
          "type": "address"
        }
      ],
      "stateMutability": "view",
      "type": "function"
    },
    {
      "inputs": [
        {
          "internalType": "address",
          "name": "_tokenAddress",
          "type": "address"
        },
        {
          "internalType": "address",
          "name": "_to",
          "type": "address"
        },
        {
          "internalType": "uint256",
          "name": "_amount",
          "type": "uint256"
        },
        {
          "internalType": "bytes[]",
          "name": "_sigs",
          "type": "bytes[]"
        }
      ],
      "name": "transferErc20",
      "outputs": [],
      "stateMutability": "nonpayable",
      "type": "function"
    },
    {
      "inputs": [
        {
          "internalType": "address",
          "name": "_to",
          "type": "address"
        },
        {
          "internalType": "uint256",
          "name": "_amount",
          "type": "uint256"
        },
        {
          "internalType": "bytes[]",
          "name": "_sigs",
          "type": "bytes[]"
        }
      ],
      "name": "transferEth",
      "outputs": [],
      "stateMutability": "nonpayable",
      "type": "function"
    },
    {
      "inputs": [
        {
          "internalType": "address",
          "name": "_tokenAddress",
          "type": "address"
        },
        {
          "internalType": "address",
          "name": "_to",
          "type": "address"
        },
        {
          "internalType": "uint256",
          "name": "_tokenId",
          "type": "uint256"
        },
        {
          "internalType": "bytes[]",
          "name": "_sigs",
          "type": "bytes[]"
        }
      ],
      "name": "transferNFT",
      "outputs": [],
      "stateMutability": "nonpayable",
      "type": "function"
    }
  ],
  "bytecode": "0x608060405234801561001057600080fd5b5060016000819055506120e4806100286000396000f3fe608060405234801561001057600080fd5b50600436106100935760003560e01c8063765d7bb811610066578063765d7bb8146101445780638b4e87d114610160578063a9fcfb3314610190578063affed0e0146101c0578063d47ed31b146101de57610093565b8063025e7c27146100985780632f54bf6e146100c8578063343ebd11146100f85780633e44457a14610114575b600080fd5b6100b260048036038101906100ad91906111bf565b6101fa565b6040516100bf919061122d565b60405180910390f35b6100e260048036038101906100dd9190611274565b610230565b6040516100ef91906112bc565b60405180910390f35b610112600480360381019061010d9190611503565b610250565b005b61012e60048036038101906101299190611572565b610583565b60405161013b91906115f2565b60405180910390f35b61015e6004803603810190610159919061160d565b6105be565b005b61017a60048036038101906101759190611690565b610945565b60405161018791906115f2565b60405180910390f35b6101aa60048036038101906101a5919061170f565b61097d565b6040516101b791906112bc565b60405180910390f35b6101c861099d565b6040516101d5919061174b565b60405180910390f35b6101f860048036038101906101f3919061160d565b6109a3565b005b6002816004811061020a57600080fd5b016000915054906101000a900473ffffffffffffffffffffffffffffffffffffffff1681565b60086020528060005260406000206000915054906101000a900460ff1681565b600860003373ffffffffffffffffffffffffffffffffffffffff1673ffffffffffffffffffffffffffffffffffffffff16815260200190815260200160002060009054906101000a900460ff16806102f55750600660009054906101000a900473ffffffffffffffffffffffffffffffffffffffff1673ffffffffffffffffffffffffffffffffffffffff163373ffffffffffffffffffffffffffffffffffffffff16145b610334576040517f08c379a000000000000000000000000000000000000000000000000000000000815260040161032b906117c3565b60405180910390fd5b61033c610d45565b8147101561037f576040517f08c379a00000000000000000000000000000000000000000000000000000000081526004016103769061182f565b60405180910390fd5b600160008154809291906103929061187e565b91905055506000600154905060006103ab858584610945565b90506007600082815260200190815260200160002060009054906101000a900460ff161561040e576040517f08c379a000000000000000000000000000000000000000000000000000000000815260040161040590611912565b60405180910390fd5b6104188382610d94565b610457576040517f08c379a000000000000000000000000000000000000000000000000000000000815260040161044e9061197e565b60405180910390fd5b60016007600083815260200190815260200160002060006101000a81548160ff02191690831515021790555060008573ffffffffffffffffffffffffffffffffffffffff16856040516104a9906119cf565b60006040518083038185875af1925050503d80600081146104e6576040519150601f19603f3d011682016040523d82523d6000602084013e6104eb565b606091505b505090508061052f576040517f08c379a000000000000000000000000000000000000000000000000000000000815260040161052690611a30565b60405180910390fd5b848673ffffffffffffffffffffffffffffffffffffffff167f78aa3d4f2910e65adebfe112cbc8865126f050ecb465ff2c3caf6306d6fca4c160405160405180910390a350505061057e610e7b565b505050565b6000308486858560405160200161059e959493929190611ab9565b604051602081830303815290604052805190602001209050949350505050565b600860003373ffffffffffffffffffffffffffffffffffffffff1673ffffffffffffffffffffffffffffffffffffffff16815260200190815260200160002060009054906101000a900460ff16806106635750600660009054906101000a900473ffffffffffffffffffffffffffffffffffffffff1673ffffffffffffffffffffffffffffffffffffffff163373ffffffffffffffffffffffffffffffffffffffff16145b6106a2576040517f08c379a0000000000000000000000000000000000000000000000000000000008152600401610699906117c3565b60405180910390fd5b818473ffffffffffffffffffffffffffffffffffffffff166370a08231306040518263ffffffff1660e01b81526004016106dc919061122d565b602060405180830381865afa1580156106f9573d6000803e3d6000fd5b505050506040513d601f19601f8201168201806040525081019061071d9190611b2d565b101561075e576040517f08c379a000000000000000000000000000000000000000000000000000000000815260040161075590611ba6565b60405180910390fd5b600160008154809291906107719061187e565b919050555060006001549050600061078b86868685610583565b90506007600082815260200190815260200160002060009054906101000a900460ff16156107ee576040517f08c379a00000000000000000000000000000000000000000000000000000000081526004016107e590611912565b60405180910390fd5b6107f88382610d94565b610837576040517f08c379a000000000000000000000000000000000000000000000000000000000815260040161082e9061197e565b60405180910390fd5b60016007600083815260200190815260200160002060006101000a81548160ff0219169083151502179055508573ffffffffffffffffffffffffffffffffffffffff1663a9059cbb86866040518363ffffffff1660e01b815260040161089e929190611bc6565b6020604051808303816000875af11580156108bd573d6000803e3d6000fd5b505050506040513d601f19601f820116820180604052508101906108e19190611c1b565b50838573ffffffffffffffffffffffffffffffffffffffff168773ffffffffffffffffffffffffffffffffffffffff167fcec678d4f2fb7155a83000124e072e5a18942004291c48454592eec8233bdac160405160405180910390a4505050505050565b60003084848460405160200161095e9493929190611c48565b6040516020818303038152906040528051906020012090509392505050565b60076020528060005260406000206000915054906101000a900460ff1681565b60015481565b600860003373ffffffffffffffffffffffffffffffffffffffff1673ffffffffffffffffffffffffffffffffffffffff16815260200190815260200160002060009054906101000a900460ff1680610a485750600660009054906101000a900473ffffffffffffffffffffffffffffffffffffffff1673ffffffffffffffffffffffffffffffffffffffff163373ffffffffffffffffffffffffffffffffffffffff16145b610a87576040517f08c379a0000000000000000000000000000000000000000000000000000000008152600401610a7e906117c3565b60405180910390fd5b3073ffffffffffffffffffffffffffffffffffffffff168473ffffffffffffffffffffffffffffffffffffffff16636352211e846040518263ffffffff1660e01b8152600401610ad7919061174b565b602060405180830381865afa158015610af4573d6000803e3d6000fd5b505050506040513d601f19601f82011682018060405250810190610b189190611cab565b73ffffffffffffffffffffffffffffffffffffffff1614610b6e576040517f08c379a0000000000000000000000000000000000000000000000000000000008152600401610b6590611d24565b60405180910390fd5b60016000815480929190610b819061187e565b9190505550600060015490506000610b9b86868685610583565b90506007600082815260200190815260200160002060009054906101000a900460ff1615610bfe576040517f08c379a0000000000000000000000000000000000000000000000000000000008152600401610bf590611912565b60405180910390fd5b610c088382610d94565b610c47576040517f08c379a0000000000000000000000000000000000000000000000000000000008152600401610c3e9061197e565b60405180910390fd5b60016007600083815260200190815260200160002060006101000a81548160ff0219169083151502179055508573ffffffffffffffffffffffffffffffffffffffff166342842e0e3087876040518463ffffffff1660e01b8152600401610cb093929190611d44565b600060405180830381600087803b158015610cca57600080fd5b505af1158015610cde573d6000803e3d6000fd5b50505050838573ffffffffffffffffffffffffffffffffffffffff168773ffffffffffffffffffffffffffffffffffffffff167f2d205f31f84d6676f72a849043bffcc33c86a597826eb9bf046c28e6b9ced03060405160405180910390a4505050505050565b600260005403610d8a576040517f08c379a0000000000000000000000000000000000000000000000000000000008152600401610d8190611dc7565b60405180910390fd5b6002600081905550565b600080610da083610e85565b905060005b8451811015610e6e576000610ddd868381518110610dc657610dc5611de7565b5b602002602001015184610eb590919063ffffffff16565b9050600060028360048110610df557610df4611de7565b5b0160009054906101000a900473ffffffffffffffffffffffffffffffffffffffff1673ffffffffffffffffffffffffffffffffffffffff168273ffffffffffffffffffffffffffffffffffffffff1614905080610e59576000945050505050610e75565b50508080610e669061187e565b915050610da5565b5060019150505b92915050565b6001600081905550565b600081604051602001610e989190611e8e565b604051602081830303815290604052805190602001209050919050565b6000806000610ec48585610edc565b91509150610ed181610f2d565b819250505092915050565b6000806041835103610f1d5760008060006020860151925060408601519150606086015160001a9050610f1187828585611093565b94509450505050610f26565b60006002915091505b9250929050565b60006004811115610f4157610f40611eb4565b5b816004811115610f5457610f53611eb4565b5b03156110905760016004811115610f6e57610f6d611eb4565b5b816004811115610f8157610f80611eb4565b5b03610fc1576040517f08c379a0000000000000000000000000000000000000000000000000000000008152600401610fb890611f2f565b60405180910390fd5b60026004811115610fd557610fd4611eb4565b5b816004811115610fe857610fe7611eb4565b5b03611028576040517f08c379a000000000000000000000000000000000000000000000000000000000815260040161101f90611f9b565b60405180910390fd5b6003600481111561103c5761103b611eb4565b5b81600481111561104f5761104e611eb4565b5b0361108f576040517f08c379a00000000000000000000000000000000000000000000000000000000081526004016110869061202d565b60405180910390fd5b5b50565b6000807f7fffffffffffffffffffffffffffffff5d576e7357a4501ddfe92f46681b20a08360001c11156110ce57600060039150915061116c565b6000600187878787604051600081526020016040526040516110f39493929190612069565b6020604051602081039080840390855afa158015611115573d6000803e3d6000fd5b505050602060405103519050600073ffffffffffffffffffffffffffffffffffffffff168173ffffffffffffffffffffffffffffffffffffffff16036111635760006001925092505061116c565b80600092509250505b94509492505050565b6000604051905090565b600080fd5b600080fd5b6000819050919050565b61119c81611189565b81146111a757600080fd5b50565b6000813590506111b981611193565b92915050565b6000602082840312156111d5576111d461117f565b5b60006111e3848285016111aa565b91505092915050565b600073ffffffffffffffffffffffffffffffffffffffff82169050919050565b6000611217826111ec565b9050919050565b6112278161120c565b82525050565b6000602082019050611242600083018461121e565b92915050565b6112518161120c565b811461125c57600080fd5b50565b60008135905061126e81611248565b92915050565b60006020828403121561128a5761128961117f565b5b60006112988482850161125f565b91505092915050565b60008115159050919050565b6112b6816112a1565b82525050565b60006020820190506112d160008301846112ad565b92915050565b600080fd5b6000601f19601f8301169050919050565b7f4e487b7100000000000000000000000000000000000000000000000000000000600052604160045260246000fd5b611325826112dc565b810181811067ffffffffffffffff82111715611344576113436112ed565b5b80604052505050565b6000611357611175565b9050611363828261131c565b919050565b600067ffffffffffffffff821115611383576113826112ed565b5b602082029050602081019050919050565b600080fd5b600080fd5b600067ffffffffffffffff8211156113b9576113b86112ed565b5b6113c2826112dc565b9050602081019050919050565b82818337600083830152505050565b60006113f16113ec8461139e565b61134d565b90508281526020810184848401111561140d5761140c611399565b5b6114188482856113cf565b509392505050565b600082601f830112611435576114346112d7565b5b81356114458482602086016113de565b91505092915050565b600061146161145c84611368565b61134d565b9050808382526020820190506020840283018581111561148457611483611394565b5b835b818110156114cb57803567ffffffffffffffff8111156114a9576114a86112d7565b5b8086016114b68982611420565b85526020850194505050602081019050611486565b5050509392505050565b600082601f8301126114ea576114e96112d7565b5b81356114fa84826020860161144e565b91505092915050565b60008060006060848603121561151c5761151b61117f565b5b600061152a8682870161125f565b935050602061153b868287016111aa565b925050604084013567ffffffffffffffff81111561155c5761155b611184565b5b611568868287016114d5565b9150509250925092565b6000806000806080858703121561158c5761158b61117f565b5b600061159a8782880161125f565b94505060206115ab8782880161125f565b93505060406115bc878288016111aa565b92505060606115cd878288016111aa565b91505092959194509250565b6000819050919050565b6115ec816115d9565b82525050565b600060208201905061160760008301846115e3565b92915050565b600080600080608085870312156116275761162661117f565b5b60006116358782880161125f565b94505060206116468782880161125f565b9350506040611657878288016111aa565b925050606085013567ffffffffffffffff81111561167857611677611184565b5b611684878288016114d5565b91505092959194509250565b6000806000606084860312156116a9576116a861117f565b5b60006116b78682870161125f565b93505060206116c8868287016111aa565b92505060406116d9868287016111aa565b9150509250925092565b6116ec816115d9565b81146116f757600080fd5b50565b600081359050611709816116e3565b92915050565b6000602082840312156117255761172461117f565b5b6000611733848285016116fa565b91505092915050565b61174581611189565b82525050565b6000602082019050611760600083018461173c565b92915050565b600082825260208201905092915050565b7f6e6f74206f776e65720000000000000000000000000000000000000000000000600082015250565b60006117ad600983611766565b91506117b882611777565b602082019050919050565b600060208201905081810360008301526117dc816117a0565b9050919050565b7f45746865722062616c616e636520746f6f206c6f770000000000000000000000600082015250565b6000611819601583611766565b9150611824826117e3565b602082019050919050565b600060208201905081810360008301526118488161180c565b9050919050565b7f4e487b7100000000000000000000000000000000000000000000000000000000600052601160045260246000fd5b600061188982611189565b91507fffffffffffffffffffffffffffffffffffffffffffffffffffffffffffffffff82036118bb576118ba61184f565b5b600182019050919050565b7f7478206578656375746564000000000000000000000000000000000000000000600082015250565b60006118fc600b83611766565b9150611907826118c6565b602082019050919050565b6000602082019050818103600083015261192b816118ef565b9050919050565b7f696e76616c696420736967000000000000000000000000000000000000000000600082015250565b6000611968600b83611766565b915061197382611932565b602082019050919050565b600060208201905081810360008301526119978161195b565b9050919050565b600081905092915050565b50565b60006119b960008361199e565b91506119c4826119a9565b600082019050919050565b60006119da826119ac565b9150819050919050565b7f4661696c656420746f2073656e64204574686572000000000000000000000000600082015250565b6000611a1a601483611766565b9150611a25826119e4565b602082019050919050565b60006020820190508181036000830152611a4981611a0d565b9050919050565b60008160601b9050919050565b6000611a6882611a50565b9050919050565b6000611a7a82611a5d565b9050919050565b611a92611a8d8261120c565b611a6f565b82525050565b6000819050919050565b611ab3611aae82611189565b611a98565b82525050565b6000611ac58288611a81565b601482019150611ad58287611a81565b601482019150611ae58286611a81565b601482019150611af58285611aa2565b602082019150611b058284611aa2565b6020820191508190509695505050505050565b600081519050611b2781611193565b92915050565b600060208284031215611b4357611b4261117f565b5b6000611b5184828501611b18565b91505092915050565b7f546f6b656e2062616c616e636520746f6f206c6f770000000000000000000000600082015250565b6000611b90601583611766565b9150611b9b82611b5a565b602082019050919050565b60006020820190508181036000830152611bbf81611b83565b9050919050565b6000604082019050611bdb600083018561121e565b611be8602083018461173c565b9392505050565b611bf8816112a1565b8114611c0357600080fd5b50565b600081519050611c1581611bef565b92915050565b600060208284031215611c3157611c3061117f565b5b6000611c3f84828501611c06565b91505092915050565b6000611c548287611a81565b601482019150611c648286611a81565b601482019150611c748285611aa2565b602082019150611c848284611aa2565b60208201915081905095945050505050565b600081519050611ca581611248565b92915050565b600060208284031215611cc157611cc061117f565b5b6000611ccf84828501611c96565b91505092915050565b7f436f6e747261637420646f6573206e6f74206f776e20746f6b656e0000000000600082015250565b6000611d0e601b83611766565b9150611d1982611cd8565b602082019050919050565b60006020820190508181036000830152611d3d81611d01565b9050919050565b6000606082019050611d59600083018661121e565b611d66602083018561121e565b611d73604083018461173c565b949350505050565b7f5265656e7472616e637947756172643a207265656e7472616e742063616c6c00600082015250565b6000611db1601f83611766565b9150611dbc82611d7b565b602082019050919050565b60006020820190508181036000830152611de081611da4565b9050919050565b7f4e487b7100000000000000000000000000000000000000000000000000000000600052603260045260246000fd5b600081905092915050565b7f19457468657265756d205369676e6564204d6573736167653a0a333200000000600082015250565b6000611e57601c83611e16565b9150611e6282611e21565b601c82019050919050565b6000819050919050565b611e88611e83826115d9565b611e6d565b82525050565b6000611e9982611e4a565b9150611ea58284611e77565b60208201915081905092915050565b7f4e487b7100000000000000000000000000000000000000000000000000000000600052602160045260246000fd5b7f45434453413a20696e76616c6964207369676e61747572650000000000000000600082015250565b6000611f19601883611766565b9150611f2482611ee3565b602082019050919050565b60006020820190508181036000830152611f4881611f0c565b9050919050565b7f45434453413a20696e76616c6964207369676e6174757265206c656e67746800600082015250565b6000611f85601f83611766565b9150611f9082611f4f565b602082019050919050565b60006020820190508181036000830152611fb481611f78565b9050919050565b7f45434453413a20696e76616c6964207369676e6174757265202773272076616c60008201527f7565000000000000000000000000000000000000000000000000000000000000602082015250565b6000612017602283611766565b915061202282611fbb565b604082019050919050565b600060208201905081810360008301526120468161200a565b9050919050565b600060ff82169050919050565b6120638161204d565b82525050565b600060808201905061207e60008301876115e3565b61208b602083018661205a565b61209860408301856115e3565b6120a560608301846115e3565b9594505050505056fea26469706673582212208e0711cacac20c7ad02ed55079dd768580c91ea2a5ccaaadab6bd90c97f7501e64736f6c63430008110033",
  "linkReferences": {},
  "deployedLinkReferences": {}
}